{
  "contractName": "AuctionContract",
  "abi": [
    {
      "inputs": [
        {
          "internalType": "address",
          "name": "_NFTAddress",
          "type": "address"
        }
      ],
      "payable": false,
      "stateMutability": "nonpayable",
      "type": "constructor"
    },
    {
      "anonymous": false,
      "inputs": [
        {
          "indexed": false,
          "internalType": "address",
          "name": "a",
          "type": "address"
        },
        {
          "indexed": false,
          "internalType": "address",
          "name": "b",
          "type": "address"
        },
        {
          "indexed": false,
          "internalType": "uint256",
          "name": "productId",
          "type": "uint256"
        },
        {
          "indexed": false,
          "internalType": "address",
          "name": "c",
          "type": "address"
        }
      ],
      "name": "AddedValuesByCall",
      "type": "event"
    },
    {
      "anonymous": false,
      "inputs": [
        {
          "indexed": false,
          "internalType": "address",
          "name": "_owner",
          "type": "address"
        },
        {
          "indexed": false,
          "internalType": "uint256",
          "name": "_auctionId",
          "type": "uint256"
        },
        {
          "indexed": false,
          "internalType": "address",
          "name": "from",
          "type": "address"
        },
        {
          "indexed": false,
          "internalType": "uint256",
          "name": "productId",
          "type": "uint256"
        }
      ],
      "name": "AuctionCancelled",
      "type": "event"
    },
    {
      "anonymous": false,
      "inputs": [
        {
          "indexed": false,
          "internalType": "address",
          "name": "_owner",
          "type": "address"
        },
        {
          "indexed": false,
          "internalType": "uint256",
          "name": "_auctionId",
          "type": "uint256"
        }
      ],
      "name": "AuctionCreated",
      "type": "event"
    },
    {
      "anonymous": false,
      "inputs": [
        {
          "indexed": false,
          "internalType": "address",
          "name": "_owner",
          "type": "address"
        },
        {
          "indexed": false,
          "internalType": "uint256",
          "name": "_auctionId",
          "type": "uint256"
        },
        {
          "indexed": false,
          "internalType": "address",
          "name": "from",
          "type": "address"
        },
        {
          "indexed": false,
          "internalType": "uint256",
          "name": "productId",
          "type": "uint256"
        }
      ],
      "name": "AuctionFinalized",
      "type": "event"
    },
    {
      "anonymous": false,
      "inputs": [
        {
          "indexed": false,
          "internalType": "address",
          "name": "_from",
          "type": "address"
        },
        {
          "indexed": false,
          "internalType": "uint256",
          "name": "_auctionId",
          "type": "uint256"
        }
      ],
      "name": "BidSuccess",
      "type": "event"
    },
    {
      "anonymous": false,
      "inputs": [
        {
          "indexed": false,
          "internalType": "uint256",
          "name": "id",
          "type": "uint256"
        },
        {
          "indexed": false,
          "internalType": "string",
          "name": "name",
          "type": "string"
        },
        {
          "indexed": false,
          "internalType": "address",
          "name": "owner",
          "type": "address"
        },
        {
          "indexed": false,
          "internalType": "uint256",
          "name": "price",
          "type": "uint256"
        },
        {
          "indexed": false,
          "internalType": "uint256",
          "name": "royaltyFee",
          "type": "uint256"
        }
      ],
      "name": "Contract",
      "type": "event"
    },
    {
      "constant": true,
      "inputs": [],
      "name": "NFTContract",
      "outputs": [
        {
          "internalType": "contract Elements",
          "name": "",
          "type": "address"
        }
      ],
      "payable": false,
      "stateMutability": "view",
      "type": "function"
    },
    {
      "constant": true,
      "inputs": [],
      "name": "_add",
      "outputs": [
        {
          "internalType": "address",
          "name": "",
          "type": "address"
        }
      ],
      "payable": false,
      "stateMutability": "view",
      "type": "function"
    },
    {
      "constant": true,
      "inputs": [
        {
          "internalType": "uint256",
          "name": "",
          "type": "uint256"
        },
        {
          "internalType": "uint256",
          "name": "",
          "type": "uint256"
        }
      ],
      "name": "auctionBids",
      "outputs": [
        {
          "internalType": "address payable",
          "name": "from",
          "type": "address"
        },
        {
          "internalType": "uint256",
          "name": "amount",
          "type": "uint256"
        }
      ],
      "payable": false,
      "stateMutability": "view",
      "type": "function"
    },
    {
      "constant": true,
      "inputs": [
        {
          "internalType": "address",
          "name": "",
          "type": "address"
        },
        {
          "internalType": "uint256",
          "name": "",
          "type": "uint256"
        }
      ],
      "name": "auctionOwner",
      "outputs": [
        {
          "internalType": "uint256",
          "name": "",
          "type": "uint256"
        }
      ],
      "payable": false,
      "stateMutability": "view",
      "type": "function"
    },
    {
      "constant": true,
      "inputs": [
        {
          "internalType": "uint256",
          "name": "",
          "type": "uint256"
        }
      ],
      "name": "auctions",
      "outputs": [
        {
          "internalType": "uint256",
          "name": "id",
          "type": "uint256"
        },
        {
          "internalType": "string",
          "name": "name",
          "type": "string"
        },
        {
          "internalType": "uint256",
          "name": "startPrice",
          "type": "uint256"
        },
        {
          "internalType": "uint256",
          "name": "endPrice",
          "type": "uint256"
        },
        {
          "internalType": "string",
          "name": "metadata",
          "type": "string"
        },
        {
          "internalType": "uint256",
          "name": "productId",
          "type": "uint256"
        },
        {
          "internalType": "address",
          "name": "deedRepositoryAddress",
          "type": "address"
        },
        {
          "internalType": "address payable",
          "name": "owner",
          "type": "address"
        },
        {
          "internalType": "bool",
          "name": "active",
          "type": "bool"
        },
        {
          "internalType": "uint256",
          "name": "royalityFee",
          "type": "uint256"
        },
        {
          "internalType": "uint256",
          "name": "startDate",
          "type": "uint256"
        },
        {
          "internalType": "uint256",
          "name": "endDate",
          "type": "uint256"
        }
      ],
      "payable": false,
      "stateMutability": "view",
      "type": "function"
    },
    {
      "constant": true,
      "inputs": [
        {
          "internalType": "uint256",
          "name": "",
          "type": "uint256"
        }
      ],
      "name": "hotAuctions",
      "outputs": [
        {
          "internalType": "uint256",
          "name": "",
          "type": "uint256"
        }
      ],
      "payable": false,
      "stateMutability": "view",
      "type": "function"
    },
    {
      "constant": true,
      "inputs": [],
      "name": "getCount",
      "outputs": [
        {
          "internalType": "uint256",
          "name": "",
          "type": "uint256"
        }
      ],
      "payable": false,
      "stateMutability": "view",
      "type": "function"
    },
    {
      "constant": true,
      "inputs": [
        {
          "internalType": "uint256",
          "name": "_auctionId",
          "type": "uint256"
        }
      ],
      "name": "getBidsCount",
      "outputs": [
        {
          "internalType": "uint256",
          "name": "",
          "type": "uint256"
        }
      ],
      "payable": false,
      "stateMutability": "view",
      "type": "function"
    },
    {
      "constant": true,
      "inputs": [
        {
          "internalType": "address",
          "name": "_owner",
          "type": "address"
        }
      ],
      "name": "getAuctionsOf",
      "outputs": [
        {
          "internalType": "uint256[]",
          "name": "",
          "type": "uint256[]"
        }
      ],
      "payable": false,
      "stateMutability": "view",
      "type": "function"
    },
    {
      "constant": true,
      "inputs": [
        {
          "internalType": "uint256",
          "name": "_auctionId",
          "type": "uint256"
        }
      ],
      "name": "getBidOfAuctions",
      "outputs": [
        {
          "components": [
            {
              "internalType": "address payable",
              "name": "from",
              "type": "address"
            },
            {
              "internalType": "uint256",
              "name": "amount",
              "type": "uint256"
            }
          ],
          "internalType": "struct AuctionContract.Bid[]",
          "name": "",
          "type": "tuple[]"
        }
      ],
      "payable": false,
      "stateMutability": "view",
      "type": "function"
    },
    {
      "constant": true,
      "inputs": [
        {
          "internalType": "uint256",
          "name": "_auctionId",
          "type": "uint256"
        }
      ],
      "name": "getCurrentBid",
      "outputs": [
        {
          "internalType": "uint256",
          "name": "",
          "type": "uint256"
        },
        {
          "internalType": "address",
          "name": "",
          "type": "address"
        }
      ],
      "payable": false,
      "stateMutability": "view",
      "type": "function"
    },
    {
      "constant": true,
      "inputs": [
        {
          "internalType": "address",
          "name": "_owner",
          "type": "address"
        }
      ],
      "name": "getAuctionsCountOfOwner",
      "outputs": [
        {
          "internalType": "uint256",
          "name": "",
          "type": "uint256"
        }
      ],
      "payable": false,
      "stateMutability": "view",
      "type": "function"
    },
    {
      "constant": true,
      "inputs": [
        {
          "internalType": "uint256",
          "name": "_auctionId",
          "type": "uint256"
        }
      ],
      "name": "getAuctionById",
      "outputs": [
        {
          "internalType": "uint256",
          "name": "id",
          "type": "uint256"
        },
        {
          "internalType": "string",
          "name": "name",
          "type": "string"
        },
        {
          "internalType": "uint256",
          "name": "startPrice",
          "type": "uint256"
        },
        {
          "internalType": "uint256",
          "name": "endPrice",
          "type": "uint256"
        },
        {
          "internalType": "string",
          "name": "metadata",
          "type": "string"
        },
        {
          "internalType": "uint256",
          "name": "productId",
          "type": "uint256"
        },
        {
          "internalType": "address",
          "name": "deedRepositoryAddress",
          "type": "address"
        },
        {
          "internalType": "address",
          "name": "owner",
          "type": "address"
        },
        {
          "internalType": "bool",
          "name": "active",
          "type": "bool"
        },
        {
          "internalType": "uint256",
          "name": "royalityFee",
          "type": "uint256"
        },
        {
          "internalType": "uint256",
          "name": "startDate",
          "type": "uint256"
        },
        {
          "internalType": "uint256",
          "name": "endDate",
          "type": "uint256"
        }
      ],
      "payable": false,
      "stateMutability": "view",
      "type": "function"
    },
    {
      "constant": false,
      "inputs": [
        {
          "internalType": "address",
          "name": "_deedRepositoryAddress",
          "type": "address"
        },
        {
          "internalType": "uint256",
          "name": "_productId",
          "type": "uint256"
        },
        {
          "internalType": "string",
          "name": "_auctionTitle",
          "type": "string"
        },
        {
          "internalType": "string",
          "name": "_metadata",
          "type": "string"
        },
        {
          "internalType": "uint256",
          "name": "_startPrice",
          "type": "uint256"
        },
        {
          "internalType": "uint256",
          "name": "_endPrice",
          "type": "uint256"
        },
        {
          "internalType": "uint256",
          "name": "_startDate",
          "type": "uint256"
        },
        {
          "internalType": "uint256",
          "name": "_endDate",
          "type": "uint256"
        },
        {
          "internalType": "uint256",
          "name": "_royalityFee",
          "type": "uint256"
        }
      ],
      "name": "createAuction",
      "outputs": [
        {
          "internalType": "bool",
          "name": "",
          "type": "bool"
        }
      ],
      "payable": false,
      "stateMutability": "nonpayable",
      "type": "function"
    },
    {
      "constant": false,
      "inputs": [
        {
          "internalType": "uint256",
          "name": "_auctionId",
          "type": "uint256"
        },
        {
          "internalType": "uint256",
          "name": "_endDate",
          "type": "uint256"
        }
      ],
      "name": "finalizeAuction",
      "outputs": [],
      "payable": false,
      "stateMutability": "nonpayable",
      "type": "function"
    },
    {
      "constant": false,
      "inputs": [
        {
          "internalType": "uint256",
          "name": "_auctionId",
          "type": "uint256"
        }
      ],
      "name": "purchasePriceAuction",
      "outputs": [],
      "payable": true,
      "stateMutability": "payable",
      "type": "function"
    },
    {
      "constant": false,
      "inputs": [
        {
          "internalType": "uint256",
          "name": "_auctionId",
          "type": "uint256"
        }
      ],
      "name": "cancelAuction",
      "outputs": [],
      "payable": false,
      "stateMutability": "nonpayable",
      "type": "function"
    },
    {
      "constant": true,
      "inputs": [],
      "name": "getHotAuctions",
      "outputs": [
        {
          "internalType": "uint256[]",
          "name": "",
          "type": "uint256[]"
        }
      ],
      "payable": false,
      "stateMutability": "view",
      "type": "function"
    },
    {
      "constant": false,
      "inputs": [
        {
          "internalType": "uint256",
          "name": "_auctionId",
          "type": "uint256"
        }
      ],
      "name": "bidOnAuction",
      "outputs": [],
      "payable": true,
      "stateMutability": "payable",
      "type": "function"
    }
  ],
  "bytecode": "0x608060405273f2392c6de6b5731118f5ca1752d77dfa358dfb68600560006101000a81548173ffffffffffffffffffffffffffffffffffffffff021916908373ffffffffffffffffffffffffffffffffffffffff160217905550730c66201b578a46b9ac05d10c7f0eef3b60cfc0fa600660006101000a81548173ffffffffffffffffffffffffffffffffffffffff021916908373ffffffffffffffffffffffffffffffffffffffff160217905550348015620000bb57600080fd5b5060405162003633380380620036338339818101604052620000e1919081019062000140565b80600360006101000a81548173ffffffffffffffffffffffffffffffffffffffff021916908373ffffffffffffffffffffffffffffffffffffffff16021790555050620001ba565b6000815190506200013a81620001a0565b92915050565b6000602082840312156200015357600080fd5b6000620001638482850162000129565b91505092915050565b6000620001798262000180565b9050919050565b600073ffffffffffffffffffffffffffffffffffffffff82169050919050565b620001ab816200016c565b8114620001b757600080fd5b50565b61346980620001ca6000396000f3fe6080604052600436106101145760003560e01c8063420ba4e6116100a0578063b1b61bfa11610064578063b1b61bfa146103e6578063c8756cda14610423578063d56aa55814610460578063da4e364f1461049d578063e28b7c3e146104db57610114565b8063420ba4e6146102f0578063571a26a01461030c5780635f93de491461035457806396b5a75514610392578063a87d942c146103bb57610114565b806318111ada116100e757806318111ada146101e757806326b7aeea1461022f57806331c2273b1461024b5780633ce64db5146102765780634008f9c0146102b357610114565b80630596d64d146101195780630bb4a0ec1461015657806310e9361b14610181578063115a93c8146101be575b600080fd5b34801561012557600080fd5b50610140600480360361013b9190810190612abd565b610506565b60405161014d9190612fe8565b60405180910390f35b34801561016257600080fd5b5061016b610527565b6040516101789190612f4e565b60405180910390f35b34801561018d57600080fd5b506101a860048036036101a39190810190612abd565b61057f565b6040516101b59190612f2c565b60405180910390f35b3480156101ca57600080fd5b506101e560048036036101e09190810190612b9c565b610656565b005b3480156101f357600080fd5b5061020e60048036036102099190810190612abd565b610ca1565b6040516102269c9b9a9998979695949392919061302c565b60405180910390f35b61024960048036036102449190810190612abd565b610fa8565b005b34801561025757600080fd5b506102606114ed565b60405161026d9190612f8b565b60405180910390f35b34801561028257600080fd5b5061029d600480360361029891908101906129c7565b611513565b6040516102aa9190612f70565b60405180910390f35b3480156102bf57600080fd5b506102da60048036036102d59190810190612abd565b61181b565b6040516102e79190612fe8565b60405180910390f35b61030a60048036036103059190810190612abd565b61183b565b005b34801561031857600080fd5b50610333600480360361032e9190810190612abd565b611c63565b60405161034b9c9b9a999897969594939291906130f4565b60405180910390f35b34801561036057600080fd5b5061037b60048036036103769190810190612b9c565b611e4d565b604051610389929190612e95565b60405180910390f35b34801561039e57600080fd5b506103b960048036036103b49190810190612abd565b611eab565b005b3480156103c757600080fd5b506103d0612302565b6040516103dd9190612fe8565b60405180910390f35b3480156103f257600080fd5b5061040d60048036036104089190810190612962565b61230f565b60405161041a9190612f4e565b60405180910390f35b34801561042f57600080fd5b5061044a6004803603610445919081019061298b565b6123ab565b6040516104579190612fe8565b60405180910390f35b34801561046c57600080fd5b5061048760048036036104829190810190612962565b6123d9565b6040516104949190612fe8565b60405180910390f35b3480156104a957600080fd5b506104c460048036036104bf9190810190612abd565b612425565b6040516104d2929190613003565b60405180910390f35b3480156104e757600080fd5b506104f061251c565b6040516104fd9190612e43565b60405180910390f35b6000818154811061051357fe5b906000526020600020016000915090505481565b6060600080548060200260200160405190810160405280929190818152602001828054801561057557602002820191906000526020600020905b815481526020019060010190808311610561575b5050505050905090565b60608060026000848152602001908152602001600020805480602002602001604051908101604052809291908181526020016000905b8282101561064757838290600052602060002090600202016040518060400160405290816000820160009054906101000a900473ffffffffffffffffffffffffffffffffffffffff1673ffffffffffffffffffffffffffffffffffffffff1673ffffffffffffffffffffffffffffffffffffffff168152602001600182015481525050815260200190600101906105b5565b50505050905080915050919050565b61065e612702565b6001838154811061066b57fe5b90600052602060002090600b02016040518061018001604052908160008201548152602001600182018054600181600116156101000203166002900480601f0160208091040260200160405190810160405280929190818152602001828054600181600116156101000203166002900480156107285780601f106106fd57610100808354040283529160200191610728565b820191906000526020600020905b81548152906001019060200180831161070b57829003601f168201915b505050505081526020016002820154815260200160038201548152602001600482018054600181600116156101000203166002900480601f0160208091040260200160405190810160405280929190818152602001828054600181600116156101000203166002900480156107de5780601f106107b3576101008083540402835291602001916107de565b820191906000526020600020905b8154815290600101906020018083116107c157829003601f168201915b50505050508152602001600582015481526020016006820160009054906101000a900473ffffffffffffffffffffffffffffffffffffffff1673ffffffffffffffffffffffffffffffffffffffff1673ffffffffffffffffffffffffffffffffffffffff1681526020016007820160009054906101000a900473ffffffffffffffffffffffffffffffffffffffff1673ffffffffffffffffffffffffffffffffffffffff1673ffffffffffffffffffffffffffffffffffffffff1681526020016007820160149054906101000a900460ff161515151581526020016008820154815260200160098201548152602001600a8201548152505090506000600260008581526020019081526020016000208054905090503373ffffffffffffffffffffffffffffffffffffffff168260e0015173ffffffffffffffffffffffffffffffffffffffff161461092f57600080fd5b600060606000806000806000600360009054906101000a900473ffffffffffffffffffffffffffffffffffffffff1673ffffffffffffffffffffffffffffffffffffffff16637acc0b208a60a001516040518263ffffffff1660e01b815260040161099a9190612fe8565b60006040518083038186803b1580156109b257600080fd5b505afa1580156109c6573d6000803e3d6000fd5b505050506040513d6000823e3d601f19601f820116820180604052506109ef9190810190612ae6565b96509650965096509650965096506000881415610a0b57610c94565b610a13612791565b600260008d815260200190815260200160002060018a0381548110610a3457fe5b90600052602060002090600202016040518060400160405290816000820160009054906101000a900473ffffffffffffffffffffffffffffffffffffffff1673ffffffffffffffffffffffffffffffffffffffff1673ffffffffffffffffffffffffffffffffffffffff16815260200160018201548152505090506000610b1c610ade84610ad06064866020015161254290919063ffffffff16565b61258c90919063ffffffff16565b610b0886610afa6064876020015161254290919063ffffffff16565b61258c90919063ffffffff16565b0183602001516125fc90919063ffffffff16565b90508673ffffffffffffffffffffffffffffffffffffffff166108fc829081150290604051600060405180830381858888f19350505050610b5c57600080fd5b8573ffffffffffffffffffffffffffffffffffffffff166108fc610ba086610b926064876020015161254290919063ffffffff16565b61258c90919063ffffffff16565b9081150290604051600060405180830381858888f19350505050610bc357600080fd5b600115610c9157600060018e81548110610bd957fe5b90600052602060002090600b020160070160146101000a81548160ff021916908315150217905550816020015160018e81548110610c1357fe5b90600052602060002090600b0201600301819055508b60018e81548110610c3657fe5b90600052602060002090600b0201600a01819055507ff5e261ad6037fbe80a9ee6c11f287400f3e4b5a077b2424264a7b1b25409e914338e84600001518e60a00151604051610c889493929190612ee7565b60405180910390a15b50505b5050505050505050505050565b6000606060008060606000806000806000806000610cbd612702565b60018e81548110610cca57fe5b90600052602060002090600b02016040518061018001604052908160008201548152602001600182018054600181600116156101000203166002900480601f016020809104026020016040519081016040528092919081815260200182805460018160011615610100020316600290048015610d875780601f10610d5c57610100808354040283529160200191610d87565b820191906000526020600020905b815481529060010190602001808311610d6a57829003601f168201915b505050505081526020016002820154815260200160038201548152602001600482018054600181600116156101000203166002900480601f016020809104026020016040519081016040528092919081815260200182805460018160011615610100020316600290048015610e3d5780601f10610e1257610100808354040283529160200191610e3d565b820191906000526020600020905b815481529060010190602001808311610e2057829003601f168201915b50505050508152602001600582015481526020016006820160009054906101000a900473ffffffffffffffffffffffffffffffffffffffff1673ffffffffffffffffffffffffffffffffffffffff1673ffffffffffffffffffffffffffffffffffffffff1681526020016007820160009054906101000a900473ffffffffffffffffffffffffffffffffffffffff1673ffffffffffffffffffffffffffffffffffffffff1673ffffffffffffffffffffffffffffffffffffffff1681526020016007820160149054906101000a900460ff161515151581526020016008820154815260200160098201548152602001600a820154815250509050806000015181602001518260400151836060015184608001518560a001518660c001518760e001518861010001518961012001518a61014001518b61016001518a9a508797508494509c509c509c509c509c509c509c509c509c509c509c509c505091939597999b5091939597999b565b6000349050610fb5612702565b60018381548110610fc257fe5b90600052602060002090600b02016040518061018001604052908160008201548152602001600182018054600181600116156101000203166002900480601f01602080910402602001604051908101604052809291908181526020018280546001816001161561010002031660029004801561107f5780601f106110545761010080835404028352916020019161107f565b820191906000526020600020905b81548152906001019060200180831161106257829003601f168201915b505050505081526020016002820154815260200160038201548152602001600482018054600181600116156101000203166002900480601f0160208091040260200160405190810160405280929190818152602001828054600181600116156101000203166002900480156111355780601f1061110a57610100808354040283529160200191611135565b820191906000526020600020905b81548152906001019060200180831161111857829003601f168201915b50505050508152602001600582015481526020016006820160009054906101000a900473ffffffffffffffffffffffffffffffffffffffff1673ffffffffffffffffffffffffffffffffffffffff1673ffffffffffffffffffffffffffffffffffffffff1681526020016007820160009054906101000a900473ffffffffffffffffffffffffffffffffffffffff1673ffffffffffffffffffffffffffffffffffffffff1673ffffffffffffffffffffffffffffffffffffffff1681526020016007820160149054906101000a900460ff161515151581526020016008820154815260200160098201548152602001600a8201548152505090503373ffffffffffffffffffffffffffffffffffffffff168160e0015173ffffffffffffffffffffffffffffffffffffffff16141561126c57600080fd5b600060026000858152602001908152602001600020805490509050600082604001519050611298612791565b6000831115611345576002600087815260200190815260200160002060018403815481106112c257fe5b90600052602060002090600202016040518060400160405290816000820160009054906101000a900473ffffffffffffffffffffffffffffffffffffffff1673ffffffffffffffffffffffffffffffffffffffff1673ffffffffffffffffffffffffffffffffffffffff1681526020016001820154815250509050806020015191505b8185101561135257600080fd5b60008311156113a257806000015173ffffffffffffffffffffffffffffffffffffffff166108fc82602001519081150290604051600060405180830381858888f193505050506113a157600080fd5b5b6113aa612791565b33816000019073ffffffffffffffffffffffffffffffffffffffff16908173ffffffffffffffffffffffffffffffffffffffff16815250508581602001818152505060026000888152602001908152602001600020819080600181540180825580915050906001820390600052602060002090600202016000909192909190915060008201518160000160006101000a81548173ffffffffffffffffffffffffffffffffffffffff021916908373ffffffffffffffffffffffffffffffffffffffff1602179055506020820151816001015550505060008790806001815401808255809150509060018203906000526020600020016000909192909190915055507f5762e6a7d331cd17a1761e94de3ea3b85e90ee6cdd9d1204e361cc650689d46333886040516114dc929190612ebe565b60405180910390a150505050505050565b600360009054906101000a900473ffffffffffffffffffffffffffffffffffffffff1681565b6000806001805490509050611526612702565b8181600001818152505089816020018190525087816040018181525050868160600181815250508881608001819052508a8160a00181815250508b8160c0019073ffffffffffffffffffffffffffffffffffffffff16908173ffffffffffffffffffffffffffffffffffffffff1681525050338160e0019073ffffffffffffffffffffffffffffffffffffffff16908173ffffffffffffffffffffffffffffffffffffffff16815250506001816101000190151590811515815250508381610120018181525050858161014001818152505084816101600181815250506001819080600181540180825580915050906001820390600052602060002090600b0201600090919290919091506000820151816000015560208201518160010190805190602001906116579291906127c1565b50604082015181600201556060820151816003015560808201518160040190805190602001906116889291906127c1565b5060a0820151816005015560c08201518160060160006101000a81548173ffffffffffffffffffffffffffffffffffffffff021916908373ffffffffffffffffffffffffffffffffffffffff16021790555060e08201518160070160006101000a81548173ffffffffffffffffffffffffffffffffffffffff021916908373ffffffffffffffffffffffffffffffffffffffff1602179055506101008201518160070160146101000a81548160ff0219169083151502179055506101208201518160080155610140820151816009015561016082015181600a0155505050600460003373ffffffffffffffffffffffffffffffffffffffff1673ffffffffffffffffffffffffffffffffffffffff1681526020019081526020016000208290806001815401808255809150509060018203906000526020600020016000909192909190915055507f3249a06bd478adf780bb7930214ad005e9cfa517d63221c0b77f27199d1a58b33383604051611800929190612ebe565b60405180910390a16001925050509998505050505050505050565b600060026000838152602001908152602001600020805490509050919050565b611843612702565b6001828154811061185057fe5b90600052602060002090600b02016040518061018001604052908160008201548152602001600182018054600181600116156101000203166002900480601f01602080910402602001604051908101604052809291908181526020018280546001816001161561010002031660029004801561190d5780601f106118e25761010080835404028352916020019161190d565b820191906000526020600020905b8154815290600101906020018083116118f057829003601f168201915b505050505081526020016002820154815260200160038201548152602001600482018054600181600116156101000203166002900480601f0160208091040260200160405190810160405280929190818152602001828054600181600116156101000203166002900480156119c35780601f10611998576101008083540402835291602001916119c3565b820191906000526020600020905b8154815290600101906020018083116119a657829003601f168201915b50505050508152602001600582015481526020016006820160009054906101000a900473ffffffffffffffffffffffffffffffffffffffff1673ffffffffffffffffffffffffffffffffffffffff1673ffffffffffffffffffffffffffffffffffffffff1681526020016007820160009054906101000a900473ffffffffffffffffffffffffffffffffffffffff1673ffffffffffffffffffffffffffffffffffffffff1673ffffffffffffffffffffffffffffffffffffffff1681526020016007820160149054906101000a900460ff161515151581526020016008820154815260200160098201548152602001600a82015481525050905034816040015114611acd57600080fd5b8060e0015173ffffffffffffffffffffffffffffffffffffffff166108fc349081150290604051600060405180830381858888f19350505050611b0f57600080fd5b600360009054906101000a900473ffffffffffffffffffffffffffffffffffffffff1673ffffffffffffffffffffffffffffffffffffffff1663e87887108260e00151338460a001516040518463ffffffff1660e01b8152600401611b7693929190612e5e565b600060405180830381600087803b158015611b9057600080fd5b505af1158015611ba4573d6000803e3d6000fd5b50505050600115611c5f57600060018381548110611bbe57fe5b90600052602060002090600b020160070160146101000a81548160ff0219169083151502179055504260018381548110611bf457fe5b90600052602060002090600b0201600a01819055507ff5e261ad6037fbe80a9ee6c11f287400f3e4b5a077b2424264a7b1b25409e91433826040015173df6e287f9a723afaa8b2b42a984bdc0714b3597434604051611c569493929190612ee7565b60405180910390a15b5050565b60018181548110611c7057fe5b90600052602060002090600b0201600091509050806000015490806001018054600181600116156101000203166002900480601f016020809104026020016040519081016040528092919081815260200182805460018160011615610100020316600290048015611d225780601f10611cf757610100808354040283529160200191611d22565b820191906000526020600020905b815481529060010190602001808311611d0557829003601f168201915b505050505090806002015490806003015490806004018054600181600116156101000203166002900480601f016020809104026020016040519081016040528092919081815260200182805460018160011615610100020316600290048015611dcc5780601f10611da157610100808354040283529160200191611dcc565b820191906000526020600020905b815481529060010190602001808311611daf57829003601f168201915b5050505050908060050154908060060160009054906101000a900473ffffffffffffffffffffffffffffffffffffffff16908060070160009054906101000a900473ffffffffffffffffffffffffffffffffffffffff16908060070160149054906101000a900460ff169080600801549080600901549080600a015490508c565b60026020528160005260406000208181548110611e6657fe5b9060005260206000209060020201600091509150508060000160009054906101000a900473ffffffffffffffffffffffffffffffffffffffff16908060010154905082565b611eb3612702565b60018281548110611ec057fe5b90600052602060002090600b02016040518061018001604052908160008201548152602001600182018054600181600116156101000203166002900480601f016020809104026020016040519081016040528092919081815260200182805460018160011615610100020316600290048015611f7d5780601f10611f5257610100808354040283529160200191611f7d565b820191906000526020600020905b815481529060010190602001808311611f6057829003601f168201915b505050505081526020016002820154815260200160038201548152602001600482018054600181600116156101000203166002900480601f0160208091040260200160405190810160405280929190818152602001828054600181600116156101000203166002900480156120335780601f1061200857610100808354040283529160200191612033565b820191906000526020600020905b81548152906001019060200180831161201657829003601f168201915b50505050508152602001600582015481526020016006820160009054906101000a900473ffffffffffffffffffffffffffffffffffffffff1673ffffffffffffffffffffffffffffffffffffffff1673ffffffffffffffffffffffffffffffffffffffff1681526020016007820160009054906101000a900473ffffffffffffffffffffffffffffffffffffffff1673ffffffffffffffffffffffffffffffffffffffff1673ffffffffffffffffffffffffffffffffffffffff1681526020016007820160149054906101000a900460ff161515151581526020016008820154815260200160098201548152602001600a820154815250509050600060026000848152602001908152602001600020805490509050600081141561218d5760006001848154811061216057fe5b90600052602060002090600b020160070160146101000a81548160ff0219169083151502179055506122fd565b612195612791565b6002600085815260200190815260200160002060018303815481106121b657fe5b90600052602060002090600202016040518060400160405290816000820160009054906101000a900473ffffffffffffffffffffffffffffffffffffffff1673ffffffffffffffffffffffffffffffffffffffff1673ffffffffffffffffffffffffffffffffffffffff16815260200160018201548152505090508260e0015173ffffffffffffffffffffffffffffffffffffffff166108fc82602001519081150290604051600060405180830381858888f1935050505061227757600080fd5b6001156122fb5760006001858154811061228d57fe5b90600052602060002090600b020160070160146101000a81548160ff0219169083151502179055507fed99d0d4c88606b9c8fac6251e8a3525854dd4418c15df71565c3908f61ae634338583600001518660a001516040516122f29493929190612ee7565b60405180910390a15b505b505050565b6000600180549050905090565b606080600460008473ffffffffffffffffffffffffffffffffffffffff1673ffffffffffffffffffffffffffffffffffffffff16815260200190815260200160002080548060200260200160405190810160405280929190818152602001828054801561239b57602002820191906000526020600020905b815481526020019060010190808311612387575b5050505050905080915050919050565b600460205281600052604060002081815481106123c457fe5b90600052602060002001600091509150505481565b6000600460008373ffffffffffffffffffffffffffffffffffffffff1673ffffffffffffffffffffffffffffffffffffffff168152602001908152602001600020805490509050919050565b600080600060026000858152602001908152602001600020805490509050600081111561250857612454612791565b60026000868152602001908152602001600020600183038154811061247557fe5b90600052602060002090600202016040518060400160405290816000820160009054906101000a900473ffffffffffffffffffffffffffffffffffffffff1673ffffffffffffffffffffffffffffffffffffffff1673ffffffffffffffffffffffffffffffffffffffff168152602001600182015481525050905080602001518160000151809050935093505050612517565b60008081915080905092509250505b915091565b600760009054906101000a900473ffffffffffffffffffffffffffffffffffffffff1681565b600061258483836040518060400160405280601a81526020017f536166654d6174683a206469766973696f6e206279207a65726f000000000000815250612646565b905092915050565b60008083141561259f57600090506125f6565b60008284029050828482816125b057fe5b04146125f1576040517f08c379a00000000000000000000000000000000000000000000000000000000081526004016125e890612fc8565b60405180910390fd5b809150505b92915050565b600061263e83836040518060400160405280601e81526020017f536166654d6174683a207375627472616374696f6e206f766572666c6f7700008152506126a7565b905092915050565b6000808311829061268d576040517f08c379a00000000000000000000000000000000000000000000000000000000081526004016126849190612fa6565b60405180910390fd5b50600083858161269957fe5b049050809150509392505050565b60008383111582906126ef576040517f08c379a00000000000000000000000000000000000000000000000000000000081526004016126e69190612fa6565b60405180910390fd5b5060008385039050809150509392505050565b604051806101800160405280600081526020016060815260200160008152602001600081526020016060815260200160008152602001600073ffffffffffffffffffffffffffffffffffffffff168152602001600073ffffffffffffffffffffffffffffffffffffffff1681526020016000151581526020016000815260200160008152602001600081525090565b6040518060400160405280600073ffffffffffffffffffffffffffffffffffffffff168152602001600081525090565b828054600181600116156101000203166002900490600052602060002090601f016020900481019282601f1061280257805160ff1916838001178555612830565b82800160010185558215612830579182015b8281111561282f578251825591602001919060010190612814565b5b50905061283d9190612841565b5090565b61286391905b8082111561285f576000816000905550600101612847565b5090565b90565b600081359050612875816133e1565b92915050565b60008151905061288a816133f8565b92915050565b600082601f8301126128a157600080fd5b81516128b46128af826131e9565b6131bc565b915080825260208301602083018583830111156128d057600080fd5b6128db83828461339d565b50505092915050565b600082601f8301126128f557600080fd5b813561290861290382613215565b6131bc565b9150808252602083016020830185838301111561292457600080fd5b61292f83828461338e565b50505092915050565b6000813590506129478161340f565b92915050565b60008151905061295c8161340f565b92915050565b60006020828403121561297457600080fd5b600061298284828501612866565b91505092915050565b6000806040838503121561299e57600080fd5b60006129ac85828601612866565b92505060206129bd85828601612938565b9150509250929050565b60008060008060008060008060006101208a8c0312156129e657600080fd5b60006129f48c828d01612866565b9950506020612a058c828d01612938565b98505060408a013567ffffffffffffffff811115612a2257600080fd5b612a2e8c828d016128e4565b97505060608a013567ffffffffffffffff811115612a4b57600080fd5b612a578c828d016128e4565b9650506080612a688c828d01612938565b95505060a0612a798c828d01612938565b94505060c0612a8a8c828d01612938565b93505060e0612a9b8c828d01612938565b925050610100612aad8c828d01612938565b9150509295985092959850929598565b600060208284031215612acf57600080fd5b6000612add84828501612938565b91505092915050565b600080600080600080600060e0888a031215612b0157600080fd5b6000612b0f8a828b0161294d565b975050602088015167ffffffffffffffff811115612b2c57600080fd5b612b388a828b01612890565b9650506040612b498a828b0161287b565b9550506060612b5a8a828b0161287b565b9450506080612b6b8a828b0161294d565b93505060a0612b7c8a828b0161294d565b92505060c0612b8d8a828b0161294d565b91505092959891949750929550565b60008060408385031215612baf57600080fd5b6000612bbd85828601612938565b9250506020612bce85828601612938565b9150509250929050565b6000612be48383612df6565b60408301905092915050565b6000612bfc8383612e25565b60208301905092915050565b612c1181613334565b82525050565b612c20816132ec565b82525050565b612c2f816132ec565b82525050565b612c3e816132da565b82525050565b6000612c4f82613261565b612c5981856132a7565b9350612c6483613241565b8060005b83811015612c95578151612c7c8882612bd8565b9750612c878361328d565b925050600181019050612c68565b5085935050505092915050565b6000612cad8261326c565b612cb781856132b8565b9350612cc283613251565b8060005b83811015612cf3578151612cda8882612bf0565b9750612ce58361329a565b925050600181019050612cc6565b5085935050505092915050565b612d09816132fe565b82525050565b612d1881613346565b82525050565b6000612d2982613282565b612d3381856132c9565b9350612d4381856020860161339d565b612d4c816133d0565b840191505092915050565b6000612d6282613277565b612d6c81856132c9565b9350612d7c81856020860161339d565b612d85816133d0565b840191505092915050565b6000612d9d6021836132c9565b91507f536166654d6174683a206d756c7469706c69636174696f6e206f766572666c6f60008301527f77000000000000000000000000000000000000000000000000000000000000006020830152604082019050919050565b604082016000820151612e0c6000850182612c17565b506020820151612e1f6020850182612e25565b50505050565b612e2e8161332a565b82525050565b612e3d8161332a565b82525050565b6000602082019050612e586000830184612c35565b92915050565b6000606082019050612e736000830186612c08565b612e806020830185612c26565b612e8d6040830184612e34565b949350505050565b6000604082019050612eaa6000830185612c26565b612eb76020830184612e34565b9392505050565b6000604082019050612ed36000830185612c08565b612ee06020830184612e34565b9392505050565b6000608082019050612efc6000830187612c08565b612f096020830186612e34565b612f166040830185612c08565b612f236060830184612e34565b95945050505050565b60006020820190508181036000830152612f468184612c44565b905092915050565b60006020820190508181036000830152612f688184612ca2565b905092915050565b6000602082019050612f856000830184612d00565b92915050565b6000602082019050612fa06000830184612d0f565b92915050565b60006020820190508181036000830152612fc08184612d1e565b905092915050565b60006020820190508181036000830152612fe181612d90565b9050919050565b6000602082019050612ffd6000830184612e34565b92915050565b60006040820190506130186000830185612e34565b6130256020830184612c35565b9392505050565b600061018082019050613042600083018f612e34565b8181036020830152613054818e612d1e565b9050613063604083018d612e34565b613070606083018c612e34565b8181036080830152613082818b612d1e565b905061309160a083018a612e34565b61309e60c0830189612c35565b6130ab60e0830188612c35565b6130b9610100830187612d00565b6130c7610120830186612e34565b6130d5610140830185612e34565b6130e3610160830184612e34565b9d9c50505050505050505050505050565b60006101808201905061310a600083018f612e34565b818103602083015261311c818e612d57565b905061312b604083018d612e34565b613138606083018c612e34565b818103608083015261314a818b612d57565b905061315960a083018a612e34565b61316660c0830189612c35565b61317360e0830188612c26565b613181610100830187612d00565b61318f610120830186612e34565b61319d610140830185612e34565b6131ab610160830184612e34565b9d9c50505050505050505050505050565b6000604051905081810181811067ffffffffffffffff821117156131df57600080fd5b8060405250919050565b600067ffffffffffffffff82111561320057600080fd5b601f19601f8301169050602081019050919050565b600067ffffffffffffffff82111561322c57600080fd5b601f19601f8301169050602081019050919050565b6000819050602082019050919050565b6000819050602082019050919050565b600081519050919050565b600081519050919050565b600081519050919050565b600081519050919050565b6000602082019050919050565b6000602082019050919050565b600082825260208201905092915050565b600082825260208201905092915050565b600082825260208201905092915050565b60006132e58261330a565b9050919050565b60006132f78261330a565b9050919050565b60008115159050919050565b600073ffffffffffffffffffffffffffffffffffffffff82169050919050565b6000819050919050565b600061333f8261336a565b9050919050565b600061335182613358565b9050919050565b60006133638261330a565b9050919050565b60006133758261337c565b9050919050565b60006133878261330a565b9050919050565b82818337600083830152505050565b60005b838110156133bb5780820151818401526020810190506133a0565b838111156133ca576000848401525b50505050565b6000601f19601f8301169050919050565b6133ea816132da565b81146133f557600080fd5b50565b613401816132ec565b811461340c57600080fd5b50565b6134188161332a565b811461342357600080fd5b5056fea365627a7a723158200322503f70a753e73927ad8471eabe0edf506b6a967f68ca85026f290c79d4cf6c6578706572696d656e74616cf564736f6c63430005100040",
  "source": "pragma solidity ^0.5.0;\npragma experimental ABIEncoderV2;\n\nimport \"./Elements.sol\";\nimport \"@openzeppelin/contracts/math/SafeMath.sol\";\n/**\n * @title Auction Repository\n * This contracts allows auctions to be created for non-fungible tokens\n * Moreover, it includes the basic functionalities of an auction house\n */\n\ncontract AuctionContract {\n    using SafeMath for uint;\n    uint[] public hotAuctions;\n    // Array with all auctions\n    Auction[] public auctions;\n\n    // Mapping from auction index to user bids\n    mapping(uint256 => Bid[]) public auctionBids;\n\n    Elements public NFTContract;\n\n    // Mapping from owner to a list of owned auctions\n    mapping(address => uint256[]) public auctionOwner;\n\n    // Bid struct to hold bidder and amount\n    struct Bid {\n        address payable from;\n        uint256 amount;\n    }\n\n    address payable _webOwner = 0xF2392C6DE6B5731118f5CA1752D77DFa358DFb68;\n    address payable _Owner = 0x0C66201b578a46B9ac05D10c7F0EEf3B60cFc0fA;\n\n    address public _add;\n\n    event AddedValuesByCall(address a, address b, uint256 productId, address c);\n\n    event BidSuccess(address _from, uint256 _auctionId);\n\n    // AuctionCreated is fired when an auction is created\n    event AuctionCreated(address _owner, uint256 _auctionId);\n\n    // AuctionFinalized is fired when an auction is finalized\n    event AuctionFinalized(address _owner, uint256 _auctionId, address from, uint256 productId);\n\n    // AuctionCancelled is fired when an auction is cancelled\n    event AuctionCancelled(address _owner, uint256 _auctionId, address from, uint256 productId);\n\n    event Contract(  uint256 id, string name, address owner, uint256 price, uint256 royaltyFee);\n\n    // Auction struct which holds all the required info\n    struct Auction {\n        uint256 id;\n        string name;\n        uint256 startPrice;\n        uint256 endPrice;\n        string metadata;\n        uint256 productId;\n        address deedRepositoryAddress;\n        address payable owner;\n        bool active;\n        uint256 royalityFee;\n        uint256 startDate;\n        uint256 endDate;\n    }\n\n      constructor(address _NFTAddress) public {\n      NFTContract = Elements(_NFTAddress);\n  }\n\n    /**\n     * @dev Guarantees msg.sender is owner of the given auction\n     * @param _auctionId uint ID of the auction to validate its ownership belongs to msg.sender\n     */\n    modifier isOwner(uint256 _auctionId) {\n        require(auctions[_auctionId].owner == msg.sender);\n        _;\n    }\n\n    /**\n     * @dev Guarantees this contract is owner of the given deed/token\n     * @param _deedRepositoryAddress address of the deed repository to validate from\n     * @param _productId uint256 ID of the deed which has been registered in the deed repository\n     */\n    modifier contractIsProductOwner(\n        address _deedRepositoryAddress,\n        uint256 _productId\n    ) {\n        address productOwner = Elements(_deedRepositoryAddress).ownerOf(_productId);\n        require(productOwner == msg.sender);\n        _;\n    }\n\n    /**\n     * @dev Disallow payments to this contract directly\n     */\n    // function() public{\n    //     revert();\n    // }\n\n    /**\n     * @dev Gets the length of auctions\n     * @return uint representing the auction count\n     */\n    function getCount() public view returns (uint256) {\n        return auctions.length;\n    }\n\n    /**\n     * @dev Gets the bid counts of a given auction\n     * @param _auctionId uint ID of the auction\n     */\n    function getBidsCount(uint256 _auctionId) public view returns (uint256) {\n        return auctionBids[_auctionId].length;\n    }\n\n    /**\n     * @dev Gets an array of owned auctions\n     * @param _owner address of the auction owner\n     */\n    function getAuctionsOf(address _owner)\n        public\n        view\n        returns (uint256[] memory)\n    {\n        uint256[] memory ownedAuctions = auctionOwner[_owner];\n        return ownedAuctions;\n    }\n\n    /**\n     * @dev Gets an array of owned auctions\n     * @param _auctionId address of the auction owner\n     */\n    function getBidOfAuctions(uint256 _auctionId)\n        public\n        view\n        returns (Bid[] memory)\n    {\n        Bid[] memory ownedBids = auctionBids[_auctionId];\n        return ownedBids;\n    }\n\n    /**\n     * @dev Gets an array of owned auctions\n     * @param _auctionId uint of the auction owner\n     * @return amount uint256, address of last bidder\n     */\n    function getCurrentBid(uint256 _auctionId)\n        public\n        view\n        returns (uint256, address)\n    {\n        uint256 bidsLength = auctionBids[_auctionId].length;\n        // if there are bids refund the last bid\n        if (bidsLength > 0) {\n            Bid memory lastBid = auctionBids[_auctionId][bidsLength - 1];\n            return (lastBid.amount, lastBid.from);\n        }\n        return (0, address(0) );\n    }\n\n    /**\n     * @dev Gets the total number of auctions owned by an address\n     * @param _owner address of the owner\n     * @return uint total number of auctions\n     */\n    function getAuctionsCountOfOwner(address _owner)\n        public\n        view\n        returns (uint256)\n    {\n        return auctionOwner[_owner].length;\n    }\n\n    /**\n     * @dev Gets the info of a given auction which are stored within a struct\n     * @param _auctionId uint ID of the auction\n     * @return string name of the auction\n     * @return uint256 starting price of the auction\n     * @return string representing the metadata of the auction\n     * @return uint256 ID of the deed registered in DeedRepository\n     * @return address Address of the DeedRepository\n     * @return address owner of the auction\n     * @return bool whether the auction is active\n     * @return bool whether the auction is finalized\n     * @return uint256 starting price of the auction\n     * @return uint256 starting price of the auction\n     */\n    function getAuctionById(uint256 _auctionId)\n        public\n        view\n        returns (\n            uint256 id,\n            string memory name,\n            uint256 startPrice,\n            uint256 endPrice,\n            string memory metadata,\n            uint256 productId,\n            address deedRepositoryAddress,\n            address owner,\n            bool active,\n            uint256 royalityFee,\n            uint256 startDate,\n            uint256 endDate\n        )\n    {\n        Auction memory auc = auctions[_auctionId];\n        return (\n            auc.id,\n            auc.name,\n            auc.startPrice,\n            auc.endPrice,\n            auc.metadata,\n            auc.productId,\n            auc.deedRepositoryAddress,\n            auc.owner,\n            auc.active,\n            auc.royalityFee,\n            auc.startDate,\n            auc.endDate\n        );\n    }\n\n    // /**\n    //  * @dev Gets the info of a given auction which are stored within a struct\n    //  * @param _auctionId uint ID of the auction\n    //  * @return uint256 bidding amount of the auction\n    //  * @return address owner of the bidder\n    //  */\n    // function getAuctionBids(uint256 _auctionId)\n    //     public\n    //     view\n    //      returns (Bid[] memory)\n    // {\n    //     Bid[] memory ownedAuctionBids = auctionBids[_auctionId];\n    //     return ownedAuctionBids;\n    // }\n\n\n    /**\n     * @dev Creates an auction with the given informatin\n     * @param _deedRepositoryAddress address of the DeedRepository contract\n     * @param _productId uint256 of the deed registered in DeedRepository\n     * @param _auctionTitle string containing auction title\n     * @param _metadata string containing auction metadata\n     * @param _startPrice uint256 starting price of the auction\n     * @param _endPrice uint256 starting price of the auction\n     * @param _startDate uint256 starting price of the auction\n     * @param _endDate uint256 starting price of the auction\n     * @return bool whether the auction is created\n     */\n    function createAuction(\n        address _deedRepositoryAddress,\n        uint256 _productId,\n        string memory _auctionTitle,\n        string memory _metadata,\n        uint256 _startPrice,\n        uint256 _endPrice,\n        uint256 _startDate,\n        uint256 _endDate,\n        uint256 _royalityFee\n    ) public returns (bool) {\n        uint256 auctionId = auctions.length;\n        Auction memory newAuction;\n        newAuction.id = auctionId;\n        newAuction.name = _auctionTitle;\n        newAuction.startPrice = _startPrice;\n        newAuction.endPrice = _endPrice;\n        newAuction.metadata = _metadata;\n        newAuction.productId = _productId;\n        newAuction.deedRepositoryAddress = _deedRepositoryAddress;\n        newAuction.owner = msg.sender;\n        newAuction.active = true;\n        newAuction.royalityFee = _royalityFee;\n        newAuction.startDate = _startDate;\n        newAuction.endDate = _endDate;\n\n        auctions.push(newAuction);\n        auctionOwner[msg.sender].push(auctionId);\n\n        \n        //  (bool success, bytes memory result) = _deedRepositoryAddress.delegatecall(abi.encodeWithSignature(\"products(uint256)\",_productId));\n\n        \n\n        emit AuctionCreated(msg.sender, auctionId );\n        return true;\n    }\n\n   \n    /**\n     * @dev Finalized an ended auction\n     * @dev The auction should be ended, and there should be at least one bid\n     * @dev On success Deed is transfered to bidder and auction owner gets the amount\n     * @param _auctionId uint ID of the created auction\n     @param _endDate uint ID of the created auction\n     */\n    function finalizeAuction(uint256 _auctionId,uint256 _endDate) public {\n        Auction memory myAuction = auctions[_auctionId];\n        uint256 bidsLength = auctionBids[_auctionId].length;\n\n        require(myAuction.owner == msg.sender);\n        \n        ( uint256 id, string memory name, address payable owner, address payable creator, uint256 price, uint256 royaltyFee, uint256 webFee) = NFTContract.products(myAuction.productId); \n        \n\n      \n\n        // 1. if auction not ended just revert\n        // if (block.timestamp < myAuction.blockDeadline) revert();\n\n        // if there are no bids cancel\n        if (bidsLength == 0) {\n            // cancelAuction(_auctionId);\n        } else {\n            // 2. the money goes to the auction owner\n            Bid memory lastBid = auctionBids[_auctionId][bidsLength - 1];\n            // (bool resp, bytes memory data) = myAuction.deedRepositoryAddress.delegatecall(abi.encodeWithSignature(\"div(uint256,uint256)\", 25, 1000));\n            // uint256 webOwnerAmount = mul(div(25,1000) , lastBid.amount);\n            // uint256 AuctionOwnerAmount = sub(lastBid.amount , webOwnerAmount);\n            //  if (!_webOwner.send(lastBid.webOwnedAmount)) {\n            //     revert();\n            // }\n            // if (!myAuction.owner.send(lastBid.auctionOwnerAmount)) {\n            //     revert();\n            // }\n           \n            uint256 remaining = lastBid.amount.sub(lastBid.amount.div(100).mul(royaltyFee)+lastBid.amount.div(100).mul(webFee));\n            if (!owner.send(remaining)) {\n                revert();\n            }\n            if (!creator.send(lastBid.amount.div(100).mul(royaltyFee))) {\n                revert();\n            }\n\n            // require(NFTContract.ownerOf(myAuction.productId) == msg.sender, \"NOT OWNER\");\n            // NFTContract.approve(address(this) to, uint256 tokenId)(msg.sender, address(this));\n            // NFTContract.setApprovalForAll(address(this), true);\n            // NFTContract.safeTransferFrom( msg.sender, lastBid.from , myAuction.productId);\n\n            // approve and transfer from this contract to the bid winner\n              // approve and transfer from this contract to the bid winner \n            // if(approveAndTransfer(address(this), lastBid.from, myAuction.deedRepositoryAddress, myAuction.productId)){\n                if(true){\n                auctions[_auctionId].active = false;\n                auctions[_auctionId].endPrice = lastBid.amount;\n                auctions[_auctionId].endDate = _endDate;    \n                emit AuctionFinalized(msg.sender, _auctionId, lastBid.from, myAuction.productId );\n                // emit Contract( id, name, owner, price,royaltyFee);\n            }\n        }\n    }\n\n\n function purchasePriceAuction(uint256 _auctionId ) public payable {\n        // uint256 ethAmountSent = msg.value;\n\n        // owner can't bid on their auctions\n        Auction memory myAuction = auctions[_auctionId];\n         if (myAuction.startPrice != msg.value) {\n            revert();\n        }\n        // require(msg.value == ethAmountSent, \"msg.value is incorrect\" );\n\n        // NFTContract.safeTransferFrom(myAuction.owner, to, tokenId);(msg.sender, myAuction.productId); \n      \n        if (!myAuction.owner.send(msg.value)) {\n                revert();\n            }\n\n        NFTContract.transferERC721Token(myAuction.owner, msg.sender, myAuction.productId); \n        if(true){\n                auctions[_auctionId].active = false;\n                auctions[_auctionId].endDate = now;    \n                emit AuctionFinalized(msg.sender, myAuction.startPrice, 0xdF6e287f9a723afaA8B2B42a984Bdc0714b35974, msg.value );\n                // emit Contract( id, name, owner, price,royaltyFee);\n            }\n      \n    }\n       /**\n     * @dev Finalized an ended auction\n     * @dev The auction should be ended, and there should be at least one bid\n     * @dev On success Deed is transfered to bidder and auction owner gets the amount\n     * @param _auctionId uint ID of the created auction\n     */\n    function cancelAuction(uint256 _auctionId) public {\n        Auction memory myAuction = auctions[_auctionId];\n        uint256 bidsLength = auctionBids[_auctionId].length;\n\n        // require(myAuction.owner == msg.sender);\n        \n        // 1. if auction not ended just revert\n        // if (block.timestamp < myAuction.blockDeadline) revert();\n\n        // if there are no bids cancel\n        if (bidsLength == 0) {\n            // cancelAuction(_auctionId);\n               auctions[_auctionId].active = false;\n        } else {\n            // 2. the money goes to the auction owner\n            Bid memory lastBid = auctionBids[_auctionId][bidsLength - 1];\n            // (bool resp, bytes memory data) = myAuction.deedRepositoryAddress.delegatecall(abi.encodeWithSignature(\"div(uint256,uint256)\", 25, 1000));\n            // uint256 webOwnerAmount = mul(div(25,1000) , lastBid.amount);\n            // uint256 AuctionOwnerAmount = sub(lastBid.amount , webOwnerAmount);\n           \n            if (!myAuction.owner.send(lastBid.amount)) {\n                revert();\n            }\n\n            // approve and transfer from this contract to the bid winner\n              // approve and transfer from this contract to the bid winner \n            // if(approveAndTransfer(address(this), lastBid.from, myAuction.deedRepositoryAddress, myAuction.productId)){\n                if(true){\n                auctions[_auctionId].active = false;\n                emit AuctionCancelled(msg.sender, _auctionId, lastBid.from, myAuction.productId);\n            }\n        }\n    }\n\n    function getHotAuctions() public view returns (uint[] memory) {\n       return hotAuctions;\n    }\n    /**\n     * @dev Bidder sends bid on an auction\n     * @dev Auction should be active and not ended\n     * @dev Refund previous bidder if a new bid is valid and placed.\n     * @param _auctionId uint ID of the created auction\n\n     */\n    function bidOnAuction(uint256 _auctionId ) public payable {\n        uint256 ethAmountSent = msg.value;\n\n        // owner can't bid on their auctions\n        Auction memory myAuction = auctions[_auctionId];\n        if (myAuction.owner == msg.sender) {\n             revert();\n        }\n\n        // if auction is expired\n        // if (block.timestamp > myAuction.blockDeadline) revert();\n\n        uint256 bidsLength = auctionBids[_auctionId].length;\n        uint256 tempAmount = myAuction.startPrice;\n        Bid memory lastBid;\n\n        // there are previous bids\n        if (bidsLength > 0) {\n            lastBid = auctionBids[_auctionId][bidsLength - 1];\n            tempAmount = lastBid.amount;\n        }\n\n\n\n        // check if amound is greater than previous amount\n        if (ethAmountSent < tempAmount){\n             revert();\n        }\n\n        // refund the last bidder\n        if (bidsLength > 0) {\n            if (!lastBid.from.send(lastBid.amount)) {\n                revert();\n            }\n        }\n\n       \n        // insert bid\n        Bid memory newBid;\n        newBid.from = msg.sender;\n        newBid.amount = ethAmountSent;\n        // newBid.auctionOwnerAmount = _auctionOwnerAmount;\n        // newBid.webOwnedAmount = _webOwnedAmount;\n        auctionBids[_auctionId].push(newBid);\n        hotAuctions.push(_auctionId);\n        emit BidSuccess(msg.sender, _auctionId);\n        \n        \n    }\n}\n",
  "sourcePath": "/Users/mac15/Desktop/amandeep/learningv2/src/contracts/AuctionContract.sol",
  "compiler": {
    "name": "solc",
    "version": "0.5.16+commit.9c3226ce.Emscripten.clang"
  },
  "schemaVersion": "3.4.1",
  "updatedAt": "2021-08-17T13:10:53.016Z",
  "networkType": "ethereum",
  "devdoc": {
    "methods": {
      "bidOnAuction(uint256)": {
        "details": "Bidder sends bid on an auctionAuction should be active and not endedRefund previous bidder if a new bid is valid and placed.",
        "params": {
          "_auctionId": "uint ID of the created auction"
        }
      },
      "cancelAuction(uint256)": {
        "details": "Finalized an ended auctionThe auction should be ended, and there should be at least one bidOn success Deed is transfered to bidder and auction owner gets the amount",
        "params": {
          "_auctionId": "uint ID of the created auction"
        }
      },
      "createAuction(address,uint256,string,string,uint256,uint256,uint256,uint256,uint256)": {
        "details": "Creates an auction with the given informatin",
        "params": {
          "_auctionTitle": "string containing auction title",
          "_deedRepositoryAddress": "address of the DeedRepository contract",
          "_endDate": "uint256 starting price of the auction",
          "_endPrice": "uint256 starting price of the auction",
          "_metadata": "string containing auction metadata",
          "_productId": "uint256 of the deed registered in DeedRepository",
          "_startDate": "uint256 starting price of the auction",
          "_startPrice": "uint256 starting price of the auction"
        },
        "return": "bool whether the auction is created"
      },
      "finalizeAuction(uint256,uint256)": {
        "details": "Finalized an ended auctionThe auction should be ended, and there should be at least one bidOn success Deed is transfered to bidder and auction owner gets the amount",
        "params": {
          "_auctionId": "uint ID of the created auction",
          "_endDate": "uint ID of the created auction"
        }
      },
      "getAuctionById(uint256)": {
        "details": "Gets the info of a given auction which are stored within a struct",
        "params": {
          "_auctionId": "uint ID of the auction"
        },
        "return": "string name of the auctionuint256 starting price of the auctionstring representing the metadata of the auctionuint256 ID of the deed registered in DeedRepositoryaddress Address of the DeedRepositoryaddress owner of the auctionbool whether the auction is activebool whether the auction is finalizeduint256 starting price of the auctionuint256 starting price of the auction"
      },
      "getAuctionsCountOfOwner(address)": {
        "details": "Gets the total number of auctions owned by an address",
        "params": {
          "_owner": "address of the owner"
        },
        "return": "uint total number of auctions"
      },
      "getAuctionsOf(address)": {
        "details": "Gets an array of owned auctions",
        "params": {
          "_owner": "address of the auction owner"
        }
      },
      "getBidOfAuctions(uint256)": {
        "details": "Gets an array of owned auctions",
        "params": {
          "_auctionId": "address of the auction owner"
        }
      },
      "getBidsCount(uint256)": {
        "details": "Gets the bid counts of a given auction",
        "params": {
          "_auctionId": "uint ID of the auction"
        }
      },
      "getCount()": {
        "details": "Gets the length of auctions",
        "return": "uint representing the auction count"
      },
      "getCurrentBid(uint256)": {
        "details": "Gets an array of owned auctions",
        "params": {
          "_auctionId": "uint of the auction owner"
        },
        "return": "amount uint256, address of last bidder"
      }
    },
    "title": "Auction Repository This contracts allows auctions to be created for non-fungible tokens Moreover, it includes the basic functionalities of an auction house"
  },
  "userdoc": {
    "methods": {}
  }
}