{
  "contractName": "ERC1155MockReceiver",
  "abi": [
    {
      "constant": true,
      "inputs": [],
      "name": "lastData",
      "outputs": [
        {
          "internalType": "bytes",
          "name": "",
          "type": "bytes"
        }
      ],
      "payable": false,
      "stateMutability": "view",
      "type": "function"
    },
    {
      "constant": true,
      "inputs": [],
      "name": "lastFrom",
      "outputs": [
        {
          "internalType": "address",
          "name": "",
          "type": "address"
        }
      ],
      "payable": false,
      "stateMutability": "view",
      "type": "function"
    },
    {
      "constant": true,
      "inputs": [],
      "name": "lastId",
      "outputs": [
        {
          "internalType": "uint256",
          "name": "",
          "type": "uint256"
        }
      ],
      "payable": false,
      "stateMutability": "view",
      "type": "function"
    },
    {
      "constant": true,
      "inputs": [],
      "name": "lastOperator",
      "outputs": [
        {
          "internalType": "address",
          "name": "",
          "type": "address"
        }
      ],
      "payable": false,
      "stateMutability": "view",
      "type": "function"
    },
    {
      "constant": true,
      "inputs": [],
      "name": "lastValue",
      "outputs": [
        {
          "internalType": "uint256",
          "name": "",
          "type": "uint256"
        }
      ],
      "payable": false,
      "stateMutability": "view",
      "type": "function"
    },
    {
      "constant": true,
      "inputs": [],
      "name": "shouldReject",
      "outputs": [
        {
          "internalType": "bool",
          "name": "",
          "type": "bool"
        }
      ],
      "payable": false,
      "stateMutability": "view",
      "type": "function"
    },
    {
      "constant": false,
      "inputs": [
        {
          "internalType": "bool",
          "name": "_value",
          "type": "bool"
        }
      ],
      "name": "setShouldReject",
      "outputs": [],
      "payable": false,
      "stateMutability": "nonpayable",
      "type": "function"
    },
    {
      "constant": false,
      "inputs": [
        {
          "internalType": "address",
          "name": "_operator",
          "type": "address"
        },
        {
          "internalType": "address",
          "name": "_from",
          "type": "address"
        },
        {
          "internalType": "uint256",
          "name": "_id",
          "type": "uint256"
        },
        {
          "internalType": "uint256",
          "name": "_value",
          "type": "uint256"
        },
        {
          "internalType": "bytes",
          "name": "_data",
          "type": "bytes"
        }
      ],
      "name": "onERC1155Received",
      "outputs": [
        {
          "internalType": "bytes4",
          "name": "",
          "type": "bytes4"
        }
      ],
      "payable": false,
      "stateMutability": "nonpayable",
      "type": "function"
    },
    {
      "constant": false,
      "inputs": [
        {
          "internalType": "address",
          "name": "_operator",
          "type": "address"
        },
        {
          "internalType": "address",
          "name": "_from",
          "type": "address"
        },
        {
          "internalType": "uint256[]",
          "name": "_ids",
          "type": "uint256[]"
        },
        {
          "internalType": "uint256[]",
          "name": "_values",
          "type": "uint256[]"
        },
        {
          "internalType": "bytes",
          "name": "_data",
          "type": "bytes"
        }
      ],
      "name": "onERC1155BatchReceived",
      "outputs": [
        {
          "internalType": "bytes4",
          "name": "",
          "type": "bytes4"
        }
      ],
      "payable": false,
      "stateMutability": "nonpayable",
      "type": "function"
    },
    {
      "constant": true,
      "inputs": [
        {
          "internalType": "bytes4",
          "name": "interfaceID",
          "type": "bytes4"
        }
      ],
      "name": "supportsInterface",
      "outputs": [
        {
          "internalType": "bool",
          "name": "",
          "type": "bool"
        }
      ],
      "payable": false,
      "stateMutability": "view",
      "type": "function"
    }
  ],
  "bytecode": "0x608060405234801561001057600080fd5b50610aa5806100206000396000f3fe608060405234801561001057600080fd5b506004361061009d5760003560e01c806380443378116100665780638044337814610214578063a175b6381461025e578063bc197c811461028e578063c1292cc314610443578063f23a6e61146104615761009d565b80626e75ec146100a257806301ffc9a7146101255780631dbb93811461018a57806343183834146101ac5780636eb3cd49146101ca575b600080fd5b6100aa610580565b6040518080602001828103825283818151815260200191508051906020019080838360005b838110156100ea5780820151818401526020810190506100cf565b50505050905090810190601f1680156101175780820380516001836020036101000a031916815260200191505b509250505060405180910390f35b6101706004803603602081101561013b57600080fd5b8101908080357bffffffffffffffffffffffffffffffffffffffffffffffffffffffff1916906020019092919050505061061e565b604051808215151515815260200191505060405180910390f35b610192610680565b604051808215151515815260200191505060405180910390f35b6101b4610692565b6040518082815260200191505060405180910390f35b6101d2610698565b604051808273ffffffffffffffffffffffffffffffffffffffff1673ffffffffffffffffffffffffffffffffffffffff16815260200191505060405180910390f35b61021c6106be565b604051808273ffffffffffffffffffffffffffffffffffffffff1673ffffffffffffffffffffffffffffffffffffffff16815260200191505060405180910390f35b61028c6004803603602081101561027457600080fd5b810190808035151590602001909291905050506106e4565b005b6103ef600480360360a08110156102a457600080fd5b81019080803573ffffffffffffffffffffffffffffffffffffffff169060200190929190803573ffffffffffffffffffffffffffffffffffffffff1690602001909291908035906020019064010000000081111561030157600080fd5b82018360208201111561031357600080fd5b8035906020019184602083028401116401000000008311171561033557600080fd5b90919293919293908035906020019064010000000081111561035657600080fd5b82018360208201111561036857600080fd5b8035906020019184602083028401116401000000008311171561038a57600080fd5b9091929391929390803590602001906401000000008111156103ab57600080fd5b8201836020820111156103bd57600080fd5b803590602001918460018302840111640100000000831117156103df57600080fd5b9091929391929390505050610700565b60405180827bffffffffffffffffffffffffffffffffffffffffffffffffffffffff19167bffffffffffffffffffffffffffffffffffffffffffffffffffffffff1916815260200191505060405180910390f35b61044b61084c565b6040518082815260200191505060405180910390f35b61052c600480360360a081101561047757600080fd5b81019080803573ffffffffffffffffffffffffffffffffffffffff169060200190929190803573ffffffffffffffffffffffffffffffffffffffff1690602001909291908035906020019092919080359060200190929190803590602001906401000000008111156104e857600080fd5b8201836020820111156104fa57600080fd5b8035906020019184600183028401116401000000008311171561051c57600080fd5b9091929391929390505050610852565b60405180827bffffffffffffffffffffffffffffffffffffffffffffffffffffffff19167bffffffffffffffffffffffffffffffffffffffffffffffffffffffff1916815260200191505060405180910390f35b60018054600181600116156101000203166002900480601f0160208091040260200160405190810160405280929190818152602001828054600181600116156101000203166002900480156106165780601f106105eb57610100808354040283529160200191610616565b820191906000526020600020905b8154815290600101906020018083116105f957829003601f168201915b505050505081565b60006301ffc9a760e01b827bffffffffffffffffffffffffffffffffffffffffffffffffffffffff191614806106795750634e2312e060e01b827bffffffffffffffffffffffffffffffffffffffffffffffffffffffff1916145b9050919050565b6000809054906101000a900460ff1681565b60055481565b600260009054906101000a900473ffffffffffffffffffffffffffffffffffffffff1681565b600360009054906101000a900473ffffffffffffffffffffffffffffffffffffffff1681565b806000806101000a81548160ff02191690831515021790555050565b600088600260006101000a81548173ffffffffffffffffffffffffffffffffffffffff021916908373ffffffffffffffffffffffffffffffffffffffff16021790555087600360006101000a81548173ffffffffffffffffffffffffffffffffffffffff021916908373ffffffffffffffffffffffffffffffffffffffff1602179055508686600081811061079157fe5b90506020020135600481905550848460008181106107ab57fe5b905060200201356005819055508282600191906107c9929190610976565b50600115156000809054906101000a900460ff1615151415610836576040517f08c379a000000000000000000000000000000000000000000000000000000000815260040180806020018281038252602d815260200180610a1c602d913960400191505060405180910390fd5b63bc197c8160e01b905098975050505050505050565b60045481565b600086600260006101000a81548173ffffffffffffffffffffffffffffffffffffffff021916908373ffffffffffffffffffffffffffffffffffffffff16021790555085600360006101000a81548173ffffffffffffffffffffffffffffffffffffffff021916908373ffffffffffffffffffffffffffffffffffffffff16021790555084600481905550836005819055508282600191906108f5929190610976565b50600115156000809054906101000a900460ff1615151415610962576040517f08c379a0000000000000000000000000000000000000000000000000000000008152600401808060200182810382526028815260200180610a496028913960400191505060405180910390fd5b63f23a6e6160e01b90509695505050505050565b828054600181600116156101000203166002900490600052602060002090601f016020900481019282601f106109b757803560ff19168380011785556109e5565b828001600101855582156109e5579182015b828111156109e45782358255916020019190600101906109c9565b5b5090506109f291906109f6565b5090565b610a1891905b80821115610a145760008160009055506001016109fc565b5090565b9056fe6f6e45524331313535426174636852656365697665643a207472616e73666572206e6f742061636365707465646f6e4552433131353552656365697665643a207472616e73666572206e6f74206163636570746564a265627a7a72315820d9cfd7c7a4c5d243135b0447236034706e43ee2abd1e2e7f788358ac4effed5064736f6c63430005100032",
  "source": "pragma solidity ^0.5.0;\n\nimport \"./Common.sol\";\nimport \"./IERC1155TokenReceiver.sol\";\n\n// Contract to test safe transfer behavior.\ncontract ERC1155MockReceiver is ERC1155TokenReceiver, CommonConstants {\n\n    // Keep values from last received contract.\n    bool public shouldReject;\n\n    bytes public lastData;\n    address public lastOperator;\n    address public lastFrom;\n    uint256 public lastId;\n    uint256 public lastValue;\n\n    function setShouldReject(bool _value) public {\n        shouldReject = _value;\n    }\n\n    function onERC1155Received(address _operator, address _from, uint256 _id, uint256 _value, bytes calldata _data) external returns(bytes4) {\n        lastOperator = _operator;\n        lastFrom = _from;\n        lastId = _id;\n        lastValue = _value;\n        lastData = _data;\n        if (shouldReject == true) {\n            revert(\"onERC1155Received: transfer not accepted\");\n        } else {\n            return ERC1155_ACCEPTED;\n        }\n    }\n\n    function onERC1155BatchReceived(address _operator, address _from, uint256[] calldata _ids, uint256[] calldata _values, bytes calldata _data) external returns(bytes4) {\n        lastOperator = _operator;\n        lastFrom = _from;\n        lastId = _ids[0];\n        lastValue = _values[0];\n        lastData = _data;\n        if (shouldReject == true) {\n            revert(\"onERC1155BatchReceived: transfer not accepted\");\n        } else {\n            return ERC1155_BATCH_ACCEPTED;\n        }\n    }\n\n    // ERC165 interface support\n    function supportsInterface(bytes4 interfaceID) external view returns (bool) {\n        return  interfaceID == 0x01ffc9a7 ||    // ERC165\n                interfaceID == 0x4e2312e0;      // ERC1155_ACCEPTED ^ ERC1155_BATCH_ACCEPTED;\n    }\n}\n",
  "sourcePath": "/Users/mac15/Desktop/amandeep/learningv2/src/contracts/ERC1155MockReceiver.sol",
  "compiler": {
    "name": "solc",
    "version": "0.5.16+commit.9c3226ce.Emscripten.clang"
  },
  "schemaVersion": "3.4.1",
  "updatedAt": "2021-07-28T12:49:54.294Z",
  "devdoc": {
    "methods": {}
  },
  "userdoc": {
    "methods": {}
  }
}