{
  "contractName": "ERC1155Mintable",
  "abi": [
    {
      "anonymous": false,
      "inputs": [
        {
          "indexed": true,
          "internalType": "address",
          "name": "_owner",
          "type": "address"
        },
        {
          "indexed": true,
          "internalType": "address",
          "name": "_operator",
          "type": "address"
        },
        {
          "indexed": false,
          "internalType": "bool",
          "name": "_approved",
          "type": "bool"
        }
      ],
      "name": "ApprovalForAll",
      "type": "event"
    },
    {
      "anonymous": false,
      "inputs": [
        {
          "indexed": true,
          "internalType": "address",
          "name": "_operator",
          "type": "address"
        },
        {
          "indexed": true,
          "internalType": "address",
          "name": "_from",
          "type": "address"
        },
        {
          "indexed": true,
          "internalType": "address",
          "name": "_to",
          "type": "address"
        },
        {
          "indexed": false,
          "internalType": "uint256[]",
          "name": "_ids",
          "type": "uint256[]"
        },
        {
          "indexed": false,
          "internalType": "uint256[]",
          "name": "_values",
          "type": "uint256[]"
        }
      ],
      "name": "TransferBatch",
      "type": "event"
    },
    {
      "anonymous": false,
      "inputs": [
        {
          "indexed": true,
          "internalType": "address",
          "name": "_operator",
          "type": "address"
        },
        {
          "indexed": true,
          "internalType": "address",
          "name": "_from",
          "type": "address"
        },
        {
          "indexed": true,
          "internalType": "address",
          "name": "_to",
          "type": "address"
        },
        {
          "indexed": false,
          "internalType": "uint256",
          "name": "_id",
          "type": "uint256"
        },
        {
          "indexed": false,
          "internalType": "uint256",
          "name": "_value",
          "type": "uint256"
        }
      ],
      "name": "TransferSingle",
      "type": "event"
    },
    {
      "anonymous": false,
      "inputs": [
        {
          "indexed": false,
          "internalType": "string",
          "name": "_value",
          "type": "string"
        },
        {
          "indexed": true,
          "internalType": "uint256",
          "name": "_id",
          "type": "uint256"
        }
      ],
      "name": "URI",
      "type": "event"
    },
    {
      "constant": true,
      "inputs": [
        {
          "internalType": "address",
          "name": "_owner",
          "type": "address"
        },
        {
          "internalType": "uint256",
          "name": "_id",
          "type": "uint256"
        }
      ],
      "name": "balanceOf",
      "outputs": [
        {
          "internalType": "uint256",
          "name": "",
          "type": "uint256"
        }
      ],
      "payable": false,
      "stateMutability": "view",
      "type": "function"
    },
    {
      "constant": true,
      "inputs": [
        {
          "internalType": "address[]",
          "name": "_owners",
          "type": "address[]"
        },
        {
          "internalType": "uint256[]",
          "name": "_ids",
          "type": "uint256[]"
        }
      ],
      "name": "balanceOfBatch",
      "outputs": [
        {
          "internalType": "uint256[]",
          "name": "",
          "type": "uint256[]"
        }
      ],
      "payable": false,
      "stateMutability": "view",
      "type": "function"
    },
    {
      "constant": true,
      "inputs": [
        {
          "internalType": "uint256",
          "name": "",
          "type": "uint256"
        }
      ],
      "name": "creators",
      "outputs": [
        {
          "internalType": "address",
          "name": "",
          "type": "address"
        }
      ],
      "payable": false,
      "stateMutability": "view",
      "type": "function"
    },
    {
      "constant": true,
      "inputs": [
        {
          "internalType": "address",
          "name": "_owner",
          "type": "address"
        },
        {
          "internalType": "address",
          "name": "_operator",
          "type": "address"
        }
      ],
      "name": "isApprovedForAll",
      "outputs": [
        {
          "internalType": "bool",
          "name": "",
          "type": "bool"
        }
      ],
      "payable": false,
      "stateMutability": "view",
      "type": "function"
    },
    {
      "constant": true,
      "inputs": [],
      "name": "nonce",
      "outputs": [
        {
          "internalType": "uint256",
          "name": "",
          "type": "uint256"
        }
      ],
      "payable": false,
      "stateMutability": "view",
      "type": "function"
    },
    {
      "constant": false,
      "inputs": [
        {
          "internalType": "address",
          "name": "_from",
          "type": "address"
        },
        {
          "internalType": "address",
          "name": "_to",
          "type": "address"
        },
        {
          "internalType": "uint256[]",
          "name": "_ids",
          "type": "uint256[]"
        },
        {
          "internalType": "uint256[]",
          "name": "_values",
          "type": "uint256[]"
        },
        {
          "internalType": "bytes",
          "name": "_data",
          "type": "bytes"
        }
      ],
      "name": "safeBatchTransferFrom",
      "outputs": [],
      "payable": false,
      "stateMutability": "nonpayable",
      "type": "function"
    },
    {
      "constant": false,
      "inputs": [
        {
          "internalType": "address",
          "name": "_from",
          "type": "address"
        },
        {
          "internalType": "address",
          "name": "_to",
          "type": "address"
        },
        {
          "internalType": "uint256",
          "name": "_id",
          "type": "uint256"
        },
        {
          "internalType": "uint256",
          "name": "_value",
          "type": "uint256"
        },
        {
          "internalType": "bytes",
          "name": "_data",
          "type": "bytes"
        }
      ],
      "name": "safeTransferFrom",
      "outputs": [],
      "payable": false,
      "stateMutability": "nonpayable",
      "type": "function"
    },
    {
      "constant": false,
      "inputs": [
        {
          "internalType": "address",
          "name": "_operator",
          "type": "address"
        },
        {
          "internalType": "bool",
          "name": "_approved",
          "type": "bool"
        }
      ],
      "name": "setApprovalForAll",
      "outputs": [],
      "payable": false,
      "stateMutability": "nonpayable",
      "type": "function"
    },
    {
      "constant": true,
      "inputs": [
        {
          "internalType": "bytes4",
          "name": "_interfaceId",
          "type": "bytes4"
        }
      ],
      "name": "supportsInterface",
      "outputs": [
        {
          "internalType": "bool",
          "name": "",
          "type": "bool"
        }
      ],
      "payable": false,
      "stateMutability": "view",
      "type": "function"
    },
    {
      "constant": false,
      "inputs": [
        {
          "internalType": "uint256",
          "name": "_initialSupply",
          "type": "uint256"
        },
        {
          "internalType": "string",
          "name": "_uri",
          "type": "string"
        }
      ],
      "name": "create",
      "outputs": [
        {
          "internalType": "uint256",
          "name": "_id",
          "type": "uint256"
        }
      ],
      "payable": false,
      "stateMutability": "nonpayable",
      "type": "function"
    },
    {
      "constant": false,
      "inputs": [
        {
          "internalType": "uint256",
          "name": "_id",
          "type": "uint256"
        },
        {
          "internalType": "address[]",
          "name": "_to",
          "type": "address[]"
        },
        {
          "internalType": "uint256[]",
          "name": "_quantities",
          "type": "uint256[]"
        }
      ],
      "name": "mint",
      "outputs": [],
      "payable": false,
      "stateMutability": "nonpayable",
      "type": "function"
    },
    {
      "constant": false,
      "inputs": [
        {
          "internalType": "string",
          "name": "_uri",
          "type": "string"
        },
        {
          "internalType": "uint256",
          "name": "_id",
          "type": "uint256"
        }
      ],
      "name": "setURI",
      "outputs": [],
      "payable": false,
      "stateMutability": "nonpayable",
      "type": "function"
    }
  ],
  "bytecode": "0x608060405234801561001057600080fd5b50612128806100206000396000f3fe608060405234801561001057600080fd5b50600436106100b35760003560e01c8063a22cb46511610071578063a22cb4651461051f578063affed0e01461056f578063cd53d08e1461058d578063cfa84fc1146105fb578063e985e9c5146106d3578063f242432a1461074f576100b3565b8062fdd58e146100b85780630118fa491461011a57806301ffc9a7146101b15780632eb2c2d6146102165780634e1273f41461037957806367db3b8f1461049c575b600080fd5b610104600480360360408110156100ce57600080fd5b81019080803573ffffffffffffffffffffffffffffffffffffffff1690602001909291908035906020019092919050505061081c565b6040518082815260200191505060405180910390f35b61019b6004803603604081101561013057600080fd5b81019080803590602001909291908035906020019064010000000081111561015757600080fd5b82018360208201111561016957600080fd5b8035906020019184600183028401116401000000008311171561018b57600080fd5b9091929391929390505050610876565b6040518082815260200191505060405180910390f35b6101fc600480360360208110156101c757600080fd5b8101908080357bffffffffffffffffffffffffffffffffffffffffffffffffffffffff19169060200190929190505050610a2c565b604051808215151515815260200191505060405180910390f35b610377600480360360a081101561022c57600080fd5b81019080803573ffffffffffffffffffffffffffffffffffffffff169060200190929190803573ffffffffffffffffffffffffffffffffffffffff1690602001909291908035906020019064010000000081111561028957600080fd5b82018360208201111561029b57600080fd5b803590602001918460208302840111640100000000831117156102bd57600080fd5b9091929391929390803590602001906401000000008111156102de57600080fd5b8201836020820111156102f057600080fd5b8035906020019184602083028401116401000000008311171561031257600080fd5b90919293919293908035906020019064010000000081111561033357600080fd5b82018360208201111561034557600080fd5b8035906020019184600183028401116401000000008311171561036757600080fd5b9091929391929390505050610a95565b005b6104456004803603604081101561038f57600080fd5b81019080803590602001906401000000008111156103ac57600080fd5b8201836020820111156103be57600080fd5b803590602001918460208302840111640100000000831117156103e057600080fd5b90919293919293908035906020019064010000000081111561040157600080fd5b82018360208201111561041357600080fd5b8035906020019184602083028401116401000000008311171561043557600080fd5b9091929391929390505050611031565b6040518080602001828103825283818151815260200191508051906020019060200280838360005b8381101561048857808201518184015260208101905061046d565b505050509050019250505060405180910390f35b61051d600480360360408110156104b257600080fd5b81019080803590602001906401000000008111156104cf57600080fd5b8201836020820111156104e157600080fd5b8035906020019184600183028401116401000000008311171561050357600080fd5b909192939192939080359060200190929190505050611147565b005b61056d6004803603604081101561053557600080fd5b81019080803573ffffffffffffffffffffffffffffffffffffffff16906020019092919080351515906020019092919050505061121d565b005b61057761131e565b6040518082815260200191505060405180910390f35b6105b9600480360360208110156105a357600080fd5b8101908080359060200190929190505050611324565b604051808273ffffffffffffffffffffffffffffffffffffffff1673ffffffffffffffffffffffffffffffffffffffff16815260200191505060405180910390f35b6106d16004803603606081101561061157600080fd5b81019080803590602001909291908035906020019064010000000081111561063857600080fd5b82018360208201111561064a57600080fd5b8035906020019184602083028401116401000000008311171561066c57600080fd5b90919293919293908035906020019064010000000081111561068d57600080fd5b82018360208201111561069f57600080fd5b803590602001918460208302840111640100000000831117156106c157600080fd5b9091929391929390505050611357565b005b610735600480360360408110156106e957600080fd5b81019080803573ffffffffffffffffffffffffffffffffffffffff169060200190929190803573ffffffffffffffffffffffffffffffffffffffff1690602001909291905050506115aa565b604051808215151515815260200191505060405180910390f35b61081a600480360360a081101561076557600080fd5b81019080803573ffffffffffffffffffffffffffffffffffffffff169060200190929190803573ffffffffffffffffffffffffffffffffffffffff1690602001909291908035906020019092919080359060200190929190803590602001906401000000008111156107d657600080fd5b8201836020820111156107e857600080fd5b8035906020019184600183028401116401000000008311171561080a57600080fd5b909192939192939050505061163e565b005b600080600083815260200190815260200160002060008473ffffffffffffffffffffffffffffffffffffffff1673ffffffffffffffffffffffffffffffffffffffff16815260200190815260200160002054905092915050565b60006003600081546001019190508190559050336002600083815260200190815260200160002060006101000a81548173ffffffffffffffffffffffffffffffffffffffff021916908373ffffffffffffffffffffffffffffffffffffffff1602179055508360008083815260200190815260200160002060003373ffffffffffffffffffffffffffffffffffffffff1673ffffffffffffffffffffffffffffffffffffffff168152602001908152602001600020819055503373ffffffffffffffffffffffffffffffffffffffff16600073ffffffffffffffffffffffffffffffffffffffff163373ffffffffffffffffffffffffffffffffffffffff167fc3d58168c5ae7397731d063d5bbf3d657854427343f4c083240f7aacaa2d0f628488604051808381526020018281526020019250505060405180910390a46000838390501115610a2557807f6bb7ff708619ba0610cba295a58592e0451dee2622938c8755667688daf3529b848460405180806020018281038252848482818152602001925080828437600081840152601f19601f820116905080830192505050935050505060405180910390a25b9392505050565b6000630e89341c60e01b7bffffffffffffffffffffffffffffffffffffffffffffffffffffffff1916827bffffffffffffffffffffffffffffffffffffffffffffffffffffffff19161415610a845760019050610a90565b610a8d82611a6a565b90505b919050565b600073ffffffffffffffffffffffffffffffffffffffff168773ffffffffffffffffffffffffffffffffffffffff161415610b1b576040517f08c379a00000000000000000000000000000000000000000000000000000000081526004018080602001828103825260258152602001806120006025913960400191505060405180910390fd5b838390508686905014610b79576040517f08c379a00000000000000000000000000000000000000000000000000000000081526004018080602001828103825260298152602001806120926029913960400191505060405180910390fd5b3373ffffffffffffffffffffffffffffffffffffffff168873ffffffffffffffffffffffffffffffffffffffff161480610c40575060011515600160008a73ffffffffffffffffffffffffffffffffffffffff1673ffffffffffffffffffffffffffffffffffffffff16815260200190815260200160002060003373ffffffffffffffffffffffffffffffffffffffff1673ffffffffffffffffffffffffffffffffffffffff16815260200190815260200160002060009054906101000a900460ff161515145b610c95576040517f08c379a000000000000000000000000000000000000000000000000000000000815260040180806020018281038252602f815260200180612025602f913960400191505060405180910390fd5b60008090505b86869050811015610e4b576000878783818110610cb457fe5b9050602002013590506000868684818110610ccb57fe5b905060200201359050610d368160008085815260200190815260200160002060008e73ffffffffffffffffffffffffffffffffffffffff1673ffffffffffffffffffffffffffffffffffffffff16815260200190815260200160002054611b1b90919063ffffffff16565b60008084815260200190815260200160002060008d73ffffffffffffffffffffffffffffffffffffffff1673ffffffffffffffffffffffffffffffffffffffff16815260200190815260200160002081905550610deb60008084815260200190815260200160002060008c73ffffffffffffffffffffffffffffffffffffffff1673ffffffffffffffffffffffffffffffffffffffff1681526020019081526020016000205482611b3290919063ffffffff16565b60008084815260200190815260200160002060008c73ffffffffffffffffffffffffffffffffffffffff1673ffffffffffffffffffffffffffffffffffffffff168152602001908152602001600020819055505050806001019050610c9b565b508673ffffffffffffffffffffffffffffffffffffffff168873ffffffffffffffffffffffffffffffffffffffff163373ffffffffffffffffffffffffffffffffffffffff167f4a39dc06d4c0dbc64b70af90fd698a233a518aa5d07e595d983b8c0526c8f7fb898989896040518080602001806020018381038352878782818152602001925060200280828437600081840152601f19601f8201169050808301925050508381038252858582818152602001925060200280828437600081840152601f19601f820116905080830192505050965050505050505060405180910390a4610f4d8773ffffffffffffffffffffffffffffffffffffffff16611b4c565b1561102757611026338989898980806020026020016040519081016040528093929190818152602001838360200280828437600081840152601f19601f82011690508083019250505050505050888880806020026020016040519081016040528093929190818152602001838360200280828437600081840152601f19601f8201169050808301925050505050505087878080601f016020809104026020016040519081016040528093929190818152602001838380828437600081840152601f19601f82011690508083019250505050505050611b5f565b5b5050505050505050565b606082829050858590501461104557600080fd5b6060858590506040519080825280602002602001820160405280156110795781602001602082028038833980820191505090505b50905060008090505b8686905081101561113a5760008086868481811061109c57fe5b90506020020135815260200190815260200160002060008888848181106110bf57fe5b9050602002013573ffffffffffffffffffffffffffffffffffffffff1673ffffffffffffffffffffffffffffffffffffffff1673ffffffffffffffffffffffffffffffffffffffff1681526020019081526020016000205482828151811061112357fe5b602002602001018181525050806001019050611082565b5080915050949350505050565b803373ffffffffffffffffffffffffffffffffffffffff166002600083815260200190815260200160002060009054906101000a900473ffffffffffffffffffffffffffffffffffffffff1673ffffffffffffffffffffffffffffffffffffffff16146111b357600080fd5b817f6bb7ff708619ba0610cba295a58592e0451dee2622938c8755667688daf3529b858560405180806020018281038252848482818152602001925080828437600081840152601f19601f820116905080830192505050935050505060405180910390a250505050565b80600160003373ffffffffffffffffffffffffffffffffffffffff1673ffffffffffffffffffffffffffffffffffffffff16815260200190815260200160002060008473ffffffffffffffffffffffffffffffffffffffff1673ffffffffffffffffffffffffffffffffffffffff16815260200190815260200160002060006101000a81548160ff0219169083151502179055508173ffffffffffffffffffffffffffffffffffffffff163373ffffffffffffffffffffffffffffffffffffffff167f17307eab39ab6107e8899845ad3d59bd9653f200f220920489ca2b5937696c3183604051808215151515815260200191505060405180910390a35050565b60035481565b60026020528060005260406000206000915054906101000a900473ffffffffffffffffffffffffffffffffffffffff1681565b843373ffffffffffffffffffffffffffffffffffffffff166002600083815260200190815260200160002060009054906101000a900473ffffffffffffffffffffffffffffffffffffffff1673ffffffffffffffffffffffffffffffffffffffff16146113c357600080fd5b60008090505b858590508110156115a15760008686838181106113e257fe5b9050602002013573ffffffffffffffffffffffffffffffffffffffff169050600085858481811061140f57fe5b90506020020135905061147a6000808b815260200190815260200160002060008473ffffffffffffffffffffffffffffffffffffffff1673ffffffffffffffffffffffffffffffffffffffff1681526020019081526020016000205482611b3290919063ffffffff16565b6000808b815260200190815260200160002060008473ffffffffffffffffffffffffffffffffffffffff1673ffffffffffffffffffffffffffffffffffffffff168152602001908152602001600020819055508173ffffffffffffffffffffffffffffffffffffffff16600073ffffffffffffffffffffffffffffffffffffffff163373ffffffffffffffffffffffffffffffffffffffff167fc3d58168c5ae7397731d063d5bbf3d657854427343f4c083240f7aacaa2d0f628c85604051808381526020018281526020019250505060405180910390a46115718273ffffffffffffffffffffffffffffffffffffffff16611b4c565b15611594576115933333848c8560405180602001604052806000815250611df0565b5b50508060010190506113c9565b50505050505050565b6000600160008473ffffffffffffffffffffffffffffffffffffffff1673ffffffffffffffffffffffffffffffffffffffff16815260200190815260200160002060008373ffffffffffffffffffffffffffffffffffffffff1673ffffffffffffffffffffffffffffffffffffffff16815260200190815260200160002060009054906101000a900460ff16905092915050565b600073ffffffffffffffffffffffffffffffffffffffff168573ffffffffffffffffffffffffffffffffffffffff1614156116e1576040517f08c379a00000000000000000000000000000000000000000000000000000000081526004018080602001828103825260158152602001807f5f746f206d757374206265206e6f6e2d7a65726f2e000000000000000000000081525060200191505060405180910390fd5b3373ffffffffffffffffffffffffffffffffffffffff168673ffffffffffffffffffffffffffffffffffffffff1614806117a8575060011515600160008873ffffffffffffffffffffffffffffffffffffffff1673ffffffffffffffffffffffffffffffffffffffff16815260200190815260200160002060003373ffffffffffffffffffffffffffffffffffffffff1673ffffffffffffffffffffffffffffffffffffffff16815260200190815260200160002060009054906101000a900460ff161515145b6117fd576040517f08c379a000000000000000000000000000000000000000000000000000000000815260040180806020018281038252602f815260200180612025602f913960400191505060405180910390fd5b61185f8360008087815260200190815260200160002060008973ffffffffffffffffffffffffffffffffffffffff1673ffffffffffffffffffffffffffffffffffffffff16815260200190815260200160002054611b1b90919063ffffffff16565b60008086815260200190815260200160002060008873ffffffffffffffffffffffffffffffffffffffff1673ffffffffffffffffffffffffffffffffffffffff1681526020019081526020016000208190555061191460008086815260200190815260200160002060008773ffffffffffffffffffffffffffffffffffffffff1673ffffffffffffffffffffffffffffffffffffffff1681526020019081526020016000205484611b3290919063ffffffff16565b60008086815260200190815260200160002060008773ffffffffffffffffffffffffffffffffffffffff1673ffffffffffffffffffffffffffffffffffffffff168152602001908152602001600020819055508473ffffffffffffffffffffffffffffffffffffffff168673ffffffffffffffffffffffffffffffffffffffff163373ffffffffffffffffffffffffffffffffffffffff167fc3d58168c5ae7397731d063d5bbf3d657854427343f4c083240f7aacaa2d0f628787604051808381526020018281526020019250505060405180910390a4611a0a8573ffffffffffffffffffffffffffffffffffffffff16611b4c565b15611a6257611a61338787878787878080601f016020809104026020016040519081016040528093929190818152602001838380828437600081840152601f19601f82011690508083019250505050505050611df0565b5b505050505050565b60006301ffc9a760e01b7bffffffffffffffffffffffffffffffffffffffffffffffffffffffff1916827bffffffffffffffffffffffffffffffffffffffffffffffffffffffff19161480611b03575063d9b67a2660e01b7bffffffffffffffffffffffffffffffffffffffffffffffffffffffff1916827bffffffffffffffffffffffffffffffffffffffffffffffffffffffff1916145b15611b115760019050611b16565b600090505b919050565b600082821115611b2757fe5b818303905092915050565b6000818301905082811015611b4357fe5b80905092915050565b600080823b905060008111915050919050565b63bc197c8160e01b7bffffffffffffffffffffffffffffffffffffffffffffffffffffffff19168473ffffffffffffffffffffffffffffffffffffffff1663bc197c8188888787876040518663ffffffff1660e01b8152600401808673ffffffffffffffffffffffffffffffffffffffff1673ffffffffffffffffffffffffffffffffffffffff1681526020018573ffffffffffffffffffffffffffffffffffffffff1673ffffffffffffffffffffffffffffffffffffffff168152602001806020018060200180602001848103845287818151815260200191508051906020019060200280838360005b83811015611c65578082015181840152602081019050611c4a565b50505050905001848103835286818151815260200191508051906020019060200280838360005b83811015611ca7578082015181840152602081019050611c8c565b50505050905001848103825285818151815260200191508051906020019080838360005b83811015611ce6578082015181840152602081019050611ccb565b50505050905090810190601f168015611d135780820380516001836020036101000a031916815260200191505b5098505050505050505050602060405180830381600087803b158015611d3857600080fd5b505af1158015611d4c573d6000803e3d6000fd5b505050506040513d6020811015611d6257600080fd5b81019080805190602001909291905050507bffffffffffffffffffffffffffffffffffffffffffffffffffffffff191614611de8576040517f08c379a000000000000000000000000000000000000000000000000000000000815260040180806020018281038252603e815260200180612054603e913960400191505060405180910390fd5b505050505050565b63f23a6e6160e01b7bffffffffffffffffffffffffffffffffffffffffffffffffffffffff19168473ffffffffffffffffffffffffffffffffffffffff1663f23a6e6188888787876040518663ffffffff1660e01b8152600401808673ffffffffffffffffffffffffffffffffffffffff1673ffffffffffffffffffffffffffffffffffffffff1681526020018573ffffffffffffffffffffffffffffffffffffffff1673ffffffffffffffffffffffffffffffffffffffff16815260200184815260200183815260200180602001828103825283818151815260200191508051906020019080838360005b83811015611ef7578082015181840152602081019050611edc565b50505050905090810190601f168015611f245780820380516001836020036101000a031916815260200191505b509650505050505050602060405180830381600087803b158015611f4757600080fd5b505af1158015611f5b573d6000803e3d6000fd5b505050506040513d6020811015611f7157600080fd5b81019080805190602001909291905050507bffffffffffffffffffffffffffffffffffffffffffffffffffffffff191614611ff7576040517f08c379a00000000000000000000000000000000000000000000000000000000081526004018080602001828103825260398152602001806120bb6039913960400191505060405180910390fd5b50505050505056fe64657374696e6174696f6e2061646472657373206d757374206265206e6f6e2d7a65726f2e4e656564206f70657261746f7220617070726f76616c20666f7220337264207061727479207472616e73666572732e636f6e74726163742072657475726e656420616e20756e6b6e6f776e2076616c75652066726f6d206f6e45524331313535426174636852656365697665645f69647320616e64205f76616c756573206172726179206c656e677468206d757374206d617463682e636f6e74726163742072657475726e656420616e20756e6b6e6f776e2076616c75652066726f6d206f6e455243313135355265636569766564a265627a7a723158202c75ff64882e58a989302e89e4e6d6bcd2b935b1da707d99680bac04e1ab165064736f6c63430005100032",
  "source": "pragma solidity ^0.5.0;\n\nimport \"./ERC1155.sol\";\n\n/**\n    @dev Mintable form of ERC1155\n    Shows how easy it is to mint new items.\n*/\ncontract ERC1155Mintable is ERC1155 {\n\n    bytes4 constant private INTERFACE_SIGNATURE_URI = 0x0e89341c;\n\n    // id => creators\n    mapping (uint256 => address) public creators;\n\n    // A nonce to ensure we have a unique id each time we mint.\n    uint256 public nonce;\n\n    modifier creatorOnly(uint256 _id) {\n        require(creators[_id] == msg.sender);\n        _;\n    }\n\n    function supportsInterface(bytes4 _interfaceId)\n    public\n    view\n    returns (bool) {\n        if (_interfaceId == INTERFACE_SIGNATURE_URI) {\n            return true;\n        } else {\n            return super.supportsInterface(_interfaceId);\n        }\n    }\n\n    // Creates a new token type and assings _initialSupply to minter\n    function create(uint256 _initialSupply, string calldata _uri) external returns(uint256 _id) {\n\n        _id = ++nonce;\n        creators[_id] = msg.sender;\n        balances[_id][msg.sender] = _initialSupply;\n\n        // Transfer event with mint semantic\n        emit TransferSingle(msg.sender, address(0x0), msg.sender, _id, _initialSupply);\n\n        if (bytes(_uri).length > 0)\n            emit URI(_uri, _id);\n    }\n\n    // Batch mint tokens. Assign directly to _to[].\n    function mint(uint256 _id, address[] calldata _to, uint256[] calldata _quantities) external creatorOnly(_id) {\n\n        for (uint256 i = 0; i < _to.length; ++i) {\n\n            address to = _to[i];\n            uint256 quantity = _quantities[i];\n\n            // Grant the items to the caller\n            balances[_id][to] = quantity.add(balances[_id][to]);\n\n            // Emit the Transfer/Mint event.\n            // the 0x0 source address implies a mint\n            // It will also provide the circulating supply info.\n            emit TransferSingle(msg.sender, address(0x0), to, _id, quantity);\n\n            if (to.isContract()) {\n                _doSafeTransferAcceptanceCheck(msg.sender, msg.sender, to, _id, quantity, '');\n            }\n        }\n    }\n\n    function setURI(string calldata _uri, uint256 _id) external creatorOnly(_id) {\n        emit URI(_uri, _id);\n    }\n}\n",
  "sourcePath": "/Users/mac15/Desktop/shekhar/learnings-v2 (2)/src/contracts/ERC1155Mintable.sol",
  "compiler": {
    "name": "solc",
    "version": "0.5.16+commit.9c3226ce.Emscripten.clang"
  },
  "schemaVersion": "3.4.1",
  "updatedAt": "2021-07-21T07:48:58.943Z",
  "devdoc": {
    "details": "Mintable form of ERC1155 Shows how easy it is to mint new items.",
    "methods": {
      "balanceOf(address,uint256)": {
        "params": {
          "_id": "ID of the Token",
          "_owner": "The address of the token holder"
        },
        "return": "The _owner's balance of the Token type requested"
      },
      "balanceOfBatch(address[],uint256[])": {
        "params": {
          "_ids": "ID of the Tokens",
          "_owners": "The addresses of the token holders"
        },
        "return": "The _owner's balance of the Token types requested (i.e. balance for each (owner, id) pair)"
      },
      "isApprovedForAll(address,address)": {
        "params": {
          "_operator": "Address of authorized operator",
          "_owner": "The owner of the Tokens"
        },
        "return": "True if the operator is approved, false if not"
      },
      "safeBatchTransferFrom(address,address,uint256[],uint256[],bytes)": {
        "details": "Caller must be approved to manage the tokens being transferred out of the `_from` account (see \"Approval\" section of the standard). MUST revert if `_to` is the zero address. MUST revert if length of `_ids` is not the same as length of `_values`. MUST revert if any of the balance(s) of the holder(s) for token(s) in `_ids` is lower than the respective amount(s) in `_values` sent to the recipient. MUST revert on any other error. MUST emit `TransferSingle` or `TransferBatch` event(s) such that all the balance changes are reflected (see \"Safe Transfer Rules\" section of the standard). Balance changes and events MUST follow the ordering of the arrays (_ids[0]/_values[0] before _ids[1]/_values[1], etc). After the above conditions for the transfer(s) in the batch are met, this function MUST check if `_to` is a smart contract (e.g. code size > 0). If so, it MUST call the relevant `ERC1155TokenReceiver` hook(s) on `_to` and act appropriately (see \"Safe Transfer Rules\" section of the standard).",
        "params": {
          "_data": "Additional data with no specified format, MUST be sent unaltered in call to the `ERC1155TokenReceiver` hook(s) on `_to`",
          "_from": "Source address",
          "_ids": "IDs of each token type (order and length must match _values array)",
          "_to": "Target address",
          "_values": "Transfer amounts per token type (order and length must match _ids array)"
        }
      },
      "safeTransferFrom(address,address,uint256,uint256,bytes)": {
        "details": "Caller must be approved to manage the tokens being transferred out of the `_from` account (see \"Approval\" section of the standard). MUST revert if `_to` is the zero address. MUST revert if balance of holder for token `_id` is lower than the `_value` sent. MUST revert on any other error. MUST emit the `TransferSingle` event to reflect the balance change (see \"Safe Transfer Rules\" section of the standard). After the above conditions are met, this function MUST check if `_to` is a smart contract (e.g. code size > 0). If so, it MUST call `onERC1155Received` on `_to` and act appropriately (see \"Safe Transfer Rules\" section of the standard).",
        "params": {
          "_data": "Additional data with no specified format, MUST be sent unaltered in call to `onERC1155Received` on `_to`",
          "_from": "Source address",
          "_id": "ID of the token type",
          "_to": "Target address",
          "_value": "Transfer amount"
        }
      },
      "setApprovalForAll(address,bool)": {
        "details": "MUST emit the ApprovalForAll event on success.",
        "params": {
          "_approved": "True if the operator is approved, false to revoke approval",
          "_operator": "Address to add to the set of authorized operators"
        }
      }
    }
  },
  "userdoc": {
    "methods": {
      "balanceOf(address,uint256)": {
        "notice": "Get the balance of an account's Tokens."
      },
      "balanceOfBatch(address[],uint256[])": {
        "notice": "Get the balance of multiple account/token pairs"
      },
      "isApprovedForAll(address,address)": {
        "notice": "Queries the approval status of an operator for a given owner."
      },
      "safeBatchTransferFrom(address,address,uint256[],uint256[],bytes)": {
        "notice": "Transfers `_values` amount(s) of `_ids` from the `_from` address to the `_to` address specified (with safety call)."
      },
      "safeTransferFrom(address,address,uint256,uint256,bytes)": {
        "notice": "Transfers `_value` amount of an `_id` from the `_from` address to the `_to` address specified (with safety call)."
      },
      "setApprovalForAll(address,bool)": {
        "notice": "Enable or disable approval for a third party (\"operator\") to manage all of the caller's tokens."
      }
    }
  }
}