{
  "contractName": "ERC1155Tradable",
  "abi": [
    {
      "inputs": [
        {
          "internalType": "string",
          "name": "_name",
          "type": "string"
        },
        {
          "internalType": "string",
          "name": "_symbol",
          "type": "string"
        }
      ],
      "payable": false,
      "stateMutability": "nonpayable",
      "type": "constructor"
    },
    {
      "anonymous": false,
      "inputs": [
        {
          "indexed": true,
          "internalType": "address",
          "name": "_owner",
          "type": "address"
        },
        {
          "indexed": true,
          "internalType": "address",
          "name": "_operator",
          "type": "address"
        },
        {
          "indexed": false,
          "internalType": "bool",
          "name": "_approved",
          "type": "bool"
        }
      ],
      "name": "ApprovalForAll",
      "type": "event"
    },
    {
      "anonymous": false,
      "inputs": [
        {
          "indexed": true,
          "internalType": "address",
          "name": "previousOwner",
          "type": "address"
        },
        {
          "indexed": true,
          "internalType": "address",
          "name": "newOwner",
          "type": "address"
        }
      ],
      "name": "OwnershipTransferred",
      "type": "event"
    },
    {
      "anonymous": false,
      "inputs": [
        {
          "indexed": true,
          "internalType": "address",
          "name": "_operator",
          "type": "address"
        },
        {
          "indexed": true,
          "internalType": "address",
          "name": "_from",
          "type": "address"
        },
        {
          "indexed": true,
          "internalType": "address",
          "name": "_to",
          "type": "address"
        },
        {
          "indexed": false,
          "internalType": "uint256[]",
          "name": "_ids",
          "type": "uint256[]"
        },
        {
          "indexed": false,
          "internalType": "uint256[]",
          "name": "_amounts",
          "type": "uint256[]"
        }
      ],
      "name": "TransferBatch",
      "type": "event"
    },
    {
      "anonymous": false,
      "inputs": [
        {
          "indexed": true,
          "internalType": "address",
          "name": "_operator",
          "type": "address"
        },
        {
          "indexed": true,
          "internalType": "address",
          "name": "_from",
          "type": "address"
        },
        {
          "indexed": true,
          "internalType": "address",
          "name": "_to",
          "type": "address"
        },
        {
          "indexed": false,
          "internalType": "uint256",
          "name": "_id",
          "type": "uint256"
        },
        {
          "indexed": false,
          "internalType": "uint256",
          "name": "_amount",
          "type": "uint256"
        }
      ],
      "name": "TransferSingle",
      "type": "event"
    },
    {
      "anonymous": false,
      "inputs": [
        {
          "indexed": false,
          "internalType": "string",
          "name": "_uri",
          "type": "string"
        },
        {
          "indexed": true,
          "internalType": "uint256",
          "name": "_id",
          "type": "uint256"
        }
      ],
      "name": "URI",
      "type": "event"
    },
    {
      "anonymous": false,
      "inputs": [
        {
          "indexed": false,
          "internalType": "uint256",
          "name": "_tokenId",
          "type": "uint256"
        }
      ],
      "name": "tokenTransfer",
      "type": "event"
    },
    {
      "constant": true,
      "inputs": [],
      "name": "_currentTokenID",
      "outputs": [
        {
          "internalType": "uint256",
          "name": "",
          "type": "uint256"
        }
      ],
      "payable": false,
      "stateMutability": "view",
      "type": "function"
    },
    {
      "constant": true,
      "inputs": [
        {
          "internalType": "address",
          "name": "_owner",
          "type": "address"
        },
        {
          "internalType": "uint256",
          "name": "_id",
          "type": "uint256"
        }
      ],
      "name": "balanceOf",
      "outputs": [
        {
          "internalType": "uint256",
          "name": "",
          "type": "uint256"
        }
      ],
      "payable": false,
      "stateMutability": "view",
      "type": "function"
    },
    {
      "constant": true,
      "inputs": [
        {
          "internalType": "address[]",
          "name": "_owners",
          "type": "address[]"
        },
        {
          "internalType": "uint256[]",
          "name": "_ids",
          "type": "uint256[]"
        }
      ],
      "name": "balanceOfBatch",
      "outputs": [
        {
          "internalType": "uint256[]",
          "name": "",
          "type": "uint256[]"
        }
      ],
      "payable": false,
      "stateMutability": "view",
      "type": "function"
    },
    {
      "constant": true,
      "inputs": [
        {
          "internalType": "uint256",
          "name": "",
          "type": "uint256"
        }
      ],
      "name": "creators",
      "outputs": [
        {
          "internalType": "address",
          "name": "",
          "type": "address"
        }
      ],
      "payable": false,
      "stateMutability": "view",
      "type": "function"
    },
    {
      "constant": true,
      "inputs": [
        {
          "internalType": "address",
          "name": "",
          "type": "address"
        },
        {
          "internalType": "uint256",
          "name": "",
          "type": "uint256"
        }
      ],
      "name": "ercTokenOwner",
      "outputs": [
        {
          "internalType": "uint256",
          "name": "",
          "type": "uint256"
        }
      ],
      "payable": false,
      "stateMutability": "view",
      "type": "function"
    },
    {
      "constant": true,
      "inputs": [
        {
          "internalType": "uint256",
          "name": "",
          "type": "uint256"
        }
      ],
      "name": "ercTokens",
      "outputs": [
        {
          "internalType": "uint256",
          "name": "id",
          "type": "uint256"
        },
        {
          "internalType": "address payable",
          "name": "owner",
          "type": "address"
        },
        {
          "internalType": "uint256",
          "name": "totalSupply",
          "type": "uint256"
        },
        {
          "internalType": "string",
          "name": "metaData",
          "type": "string"
        }
      ],
      "payable": false,
      "stateMutability": "view",
      "type": "function"
    },
    {
      "constant": true,
      "inputs": [],
      "name": "isOwner",
      "outputs": [
        {
          "internalType": "bool",
          "name": "",
          "type": "bool"
        }
      ],
      "payable": false,
      "stateMutability": "view",
      "type": "function"
    },
    {
      "constant": true,
      "inputs": [],
      "name": "name",
      "outputs": [
        {
          "internalType": "string",
          "name": "",
          "type": "string"
        }
      ],
      "payable": false,
      "stateMutability": "view",
      "type": "function"
    },
    {
      "constant": true,
      "inputs": [],
      "name": "owner",
      "outputs": [
        {
          "internalType": "address",
          "name": "",
          "type": "address"
        }
      ],
      "payable": false,
      "stateMutability": "view",
      "type": "function"
    },
    {
      "constant": false,
      "inputs": [],
      "name": "renounceOwnership",
      "outputs": [],
      "payable": false,
      "stateMutability": "nonpayable",
      "type": "function"
    },
    {
      "constant": false,
      "inputs": [
        {
          "internalType": "address",
          "name": "_from",
          "type": "address"
        },
        {
          "internalType": "address",
          "name": "_to",
          "type": "address"
        },
        {
          "internalType": "uint256[]",
          "name": "_ids",
          "type": "uint256[]"
        },
        {
          "internalType": "uint256[]",
          "name": "_amounts",
          "type": "uint256[]"
        },
        {
          "internalType": "bytes",
          "name": "_data",
          "type": "bytes"
        }
      ],
      "name": "safeBatchTransferFrom",
      "outputs": [],
      "payable": false,
      "stateMutability": "nonpayable",
      "type": "function"
    },
    {
      "constant": false,
      "inputs": [
        {
          "internalType": "address",
          "name": "_from",
          "type": "address"
        },
        {
          "internalType": "address",
          "name": "_to",
          "type": "address"
        },
        {
          "internalType": "uint256",
          "name": "_id",
          "type": "uint256"
        },
        {
          "internalType": "uint256",
          "name": "_amount",
          "type": "uint256"
        },
        {
          "internalType": "bytes",
          "name": "_data",
          "type": "bytes"
        }
      ],
      "name": "safeTransferFrom",
      "outputs": [],
      "payable": false,
      "stateMutability": "nonpayable",
      "type": "function"
    },
    {
      "constant": false,
      "inputs": [
        {
          "internalType": "address",
          "name": "_operator",
          "type": "address"
        },
        {
          "internalType": "bool",
          "name": "_approved",
          "type": "bool"
        }
      ],
      "name": "setApprovalForAll",
      "outputs": [],
      "payable": false,
      "stateMutability": "nonpayable",
      "type": "function"
    },
    {
      "constant": true,
      "inputs": [
        {
          "internalType": "bytes4",
          "name": "_interfaceID",
          "type": "bytes4"
        }
      ],
      "name": "supportsInterface",
      "outputs": [
        {
          "internalType": "bool",
          "name": "",
          "type": "bool"
        }
      ],
      "payable": false,
      "stateMutability": "view",
      "type": "function"
    },
    {
      "constant": true,
      "inputs": [],
      "name": "symbol",
      "outputs": [
        {
          "internalType": "string",
          "name": "",
          "type": "string"
        }
      ],
      "payable": false,
      "stateMutability": "view",
      "type": "function"
    },
    {
      "constant": true,
      "inputs": [
        {
          "internalType": "uint256",
          "name": "",
          "type": "uint256"
        }
      ],
      "name": "tokenSupply",
      "outputs": [
        {
          "internalType": "uint256",
          "name": "",
          "type": "uint256"
        }
      ],
      "payable": false,
      "stateMutability": "view",
      "type": "function"
    },
    {
      "constant": false,
      "inputs": [
        {
          "internalType": "address",
          "name": "newOwner",
          "type": "address"
        }
      ],
      "name": "transferOwnership",
      "outputs": [],
      "payable": false,
      "stateMutability": "nonpayable",
      "type": "function"
    },
    {
      "constant": true,
      "inputs": [
        {
          "internalType": "uint256",
          "name": "_id",
          "type": "uint256"
        }
      ],
      "name": "uri",
      "outputs": [
        {
          "internalType": "string",
          "name": "",
          "type": "string"
        }
      ],
      "payable": false,
      "stateMutability": "view",
      "type": "function"
    },
    {
      "constant": true,
      "inputs": [
        {
          "internalType": "uint256",
          "name": "_id",
          "type": "uint256"
        }
      ],
      "name": "totalSupply",
      "outputs": [
        {
          "internalType": "uint256",
          "name": "",
          "type": "uint256"
        }
      ],
      "payable": false,
      "stateMutability": "view",
      "type": "function"
    },
    {
      "constant": true,
      "inputs": [
        {
          "internalType": "address",
          "name": "_owner",
          "type": "address"
        }
      ],
      "name": "getTokensOfERC1155",
      "outputs": [
        {
          "internalType": "uint256[]",
          "name": "",
          "type": "uint256[]"
        }
      ],
      "payable": false,
      "stateMutability": "view",
      "type": "function"
    },
    {
      "constant": false,
      "inputs": [
        {
          "internalType": "string",
          "name": "_newBaseMetadataURI",
          "type": "string"
        }
      ],
      "name": "setBaseMetadataURI",
      "outputs": [],
      "payable": false,
      "stateMutability": "nonpayable",
      "type": "function"
    },
    {
      "constant": false,
      "inputs": [
        {
          "internalType": "address payable",
          "name": "_initialOwner",
          "type": "address"
        },
        {
          "internalType": "uint256",
          "name": "_initialSupply",
          "type": "uint256"
        },
        {
          "internalType": "string",
          "name": "_uri",
          "type": "string"
        },
        {
          "internalType": "bytes",
          "name": "_data",
          "type": "bytes"
        }
      ],
      "name": "create",
      "outputs": [
        {
          "internalType": "uint256",
          "name": "",
          "type": "uint256"
        }
      ],
      "payable": false,
      "stateMutability": "nonpayable",
      "type": "function"
    },
    {
      "constant": false,
      "inputs": [
        {
          "internalType": "address",
          "name": "_to",
          "type": "address"
        },
        {
          "internalType": "uint256",
          "name": "_id",
          "type": "uint256"
        },
        {
          "internalType": "uint256",
          "name": "_quantity",
          "type": "uint256"
        },
        {
          "internalType": "bytes",
          "name": "_data",
          "type": "bytes"
        }
      ],
      "name": "mint",
      "outputs": [],
      "payable": false,
      "stateMutability": "nonpayable",
      "type": "function"
    },
    {
      "constant": false,
      "inputs": [
        {
          "internalType": "address",
          "name": "_to",
          "type": "address"
        },
        {
          "internalType": "uint256[]",
          "name": "_ids",
          "type": "uint256[]"
        },
        {
          "internalType": "uint256[]",
          "name": "_quantities",
          "type": "uint256[]"
        },
        {
          "internalType": "bytes",
          "name": "_data",
          "type": "bytes"
        }
      ],
      "name": "batchMint",
      "outputs": [],
      "payable": false,
      "stateMutability": "nonpayable",
      "type": "function"
    },
    {
      "constant": false,
      "inputs": [
        {
          "internalType": "address",
          "name": "_to",
          "type": "address"
        },
        {
          "internalType": "uint256[]",
          "name": "_ids",
          "type": "uint256[]"
        }
      ],
      "name": "setCreator",
      "outputs": [],
      "payable": false,
      "stateMutability": "nonpayable",
      "type": "function"
    },
    {
      "constant": true,
      "inputs": [
        {
          "internalType": "address",
          "name": "_owner",
          "type": "address"
        },
        {
          "internalType": "address",
          "name": "_operator",
          "type": "address"
        }
      ],
      "name": "isApprovedForAll",
      "outputs": [
        {
          "internalType": "bool",
          "name": "isOperator",
          "type": "bool"
        }
      ],
      "payable": false,
      "stateMutability": "view",
      "type": "function"
    },
    {
      "constant": false,
      "inputs": [
        {
          "internalType": "address",
          "name": "_from",
          "type": "address"
        },
        {
          "internalType": "address payable",
          "name": "_to",
          "type": "address"
        },
        {
          "internalType": "uint256",
          "name": "_token",
          "type": "uint256"
        },
        {
          "internalType": "uint256",
          "name": "_amount",
          "type": "uint256"
        }
      ],
      "name": "transferToken",
      "outputs": [],
      "payable": false,
      "stateMutability": "nonpayable",
      "type": "function"
    }
  ],
  "bytecode": "0x608060405260006004553480156200001657600080fd5b50604051620045d2380380620045d2833981810160405260408110156200003c57600080fd5b81019080805160405193929190846401000000008211156200005d57600080fd5b838201915060208201858111156200007457600080fd5b82518660018202830111640100000000821117156200009257600080fd5b8083526020830192505050908051906020019080838360005b83811015620000c8578082015181840152602081019050620000ab565b50505050905090810190601f168015620000f65780820380516001836020036101000a031916815260200191505b50604052602001805160405193929190846401000000008211156200011a57600080fd5b838201915060208201858111156200013157600080fd5b82518660018202830111640100000000821117156200014f57600080fd5b8083526020830192505050908051906020019080838360005b838110156200018557808201518184015260208101905062000168565b50505050905090810190601f168015620001b35780820380516001836020036101000a031916815260200191505b506040525050506000620001cc620002a560201b60201c565b905080600360006101000a81548173ffffffffffffffffffffffffffffffffffffffff021916908373ffffffffffffffffffffffffffffffffffffffff1602179055508073ffffffffffffffffffffffffffffffffffffffff16600073ffffffffffffffffffffffffffffffffffffffff167f8be0079c531659141344cd1fd0a4f28419497f9722a3daafe3b4186f6b6457e060405160405180910390a350816009908051906020019062000283929190620002ad565b5080600a90805190602001906200029c929190620002ad565b5050506200035c565b600033905090565b828054600181600116156101000203166002900490600052602060002090601f016020900481019282601f10620002f057805160ff191683800117855562000321565b8280016001018555821562000321579182015b828111156200032057825182559160200191906001019062000303565b5b50905062000330919062000334565b5090565b6200035991905b80821115620003555760008160009055506001016200033b565b5090565b90565b614266806200036c6000396000f3fe608060405234801561001057600080fd5b50600436106101a85760003560e01c80638da5cb5b116100f9578063d2a6b51a11610097578063e985e9c511610071578063e985e9c5146111c9578063f242432a14611245578063f2fde38b14611354578063fd99c6cb14611398576101a8565b8063d2a6b51a14610e79578063d2f07c0f14610f51578063e38e3b2414611039576101a8565b8063a22cb465116100d3578063a22cb46514610b76578063b48ab8b614610bc6578063bd85b03914610dc9578063cd53d08e14610e0b576101a8565b80638da5cb5b14610a875780638f32d59b14610ad157806395d89b4114610af3576101a8565b80632693ebf211610166578063715018a611610140578063715018a6146108b5578063731133e9146108bf5780637e518ec8146109ae578063832efb5a14610a69576101a8565b80632693ebf2146104af5780632eb2c2d6146104f15780634e1273f414610714576101a8565b8062fdd58e146101ad57806301ffc9a71461020f578063036ebef91461027457806306fdde03146102ec5780630e89341c1461036f5780630f16497114610416575b600080fd5b6101f9600480360360408110156101c357600080fd5b81019080803573ffffffffffffffffffffffffffffffffffffffff169060200190929190803590602001909291905050506113fa565b6040518082815260200191505060405180910390f35b61025a6004803603602081101561022557600080fd5b8101908080357bffffffffffffffffffffffffffffffffffffffffffffffffffffffff19169060200190929190505050611454565b604051808215151515815260200191505060405180910390f35b6102ea6004803603608081101561028a57600080fd5b81019080803573ffffffffffffffffffffffffffffffffffffffff169060200190929190803573ffffffffffffffffffffffffffffffffffffffff1690602001909291908035906020019092919080359060200190929190505050611505565b005b6102f46115ed565b6040518080602001828103825283818151815260200191508051906020019080838360005b83811015610334578082015181840152602081019050610319565b50505050905090810190601f1680156103615780820380516001836020036101000a031916815260200191505b509250505060405180910390f35b61039b6004803603602081101561038557600080fd5b810190808035906020019092919050505061168b565b6040518080602001828103825283818151815260200191508051906020019080838360005b838110156103db5780820151818401526020810190506103c0565b50505050905090810190601f1680156104085780820380516001836020036101000a031916815260200191505b509250505060405180910390f35b6104586004803603602081101561042c57600080fd5b81019080803573ffffffffffffffffffffffffffffffffffffffff16906020019092919050505061179e565b6040518080602001828103825283818151815260200191508051906020019060200280838360005b8381101561049b578082015181840152602081019050610480565b505050509050019250505060405180910390f35b6104db600480360360208110156104c557600080fd5b810190808035906020019092919050505061183a565b6040518082815260200191505060405180910390f35b610712600480360360a081101561050757600080fd5b81019080803573ffffffffffffffffffffffffffffffffffffffff169060200190929190803573ffffffffffffffffffffffffffffffffffffffff1690602001909291908035906020019064010000000081111561056457600080fd5b82018360208201111561057657600080fd5b8035906020019184602083028401116401000000008311171561059857600080fd5b919080806020026020016040519081016040528093929190818152602001838360200280828437600081840152601f19601f820116905080830192505050505050509192919290803590602001906401000000008111156105f857600080fd5b82018360208201111561060a57600080fd5b8035906020019184602083028401116401000000008311171561062c57600080fd5b919080806020026020016040519081016040528093929190818152602001838360200280828437600081840152601f19601f8201169050808301925050505050505091929192908035906020019064010000000081111561068c57600080fd5b82018360208201111561069e57600080fd5b803590602001918460018302840111640100000000831117156106c057600080fd5b91908080601f016020809104026020016040519081016040528093929190818152602001838380828437600081840152601f19601f820116905080830192505050505050509192919290505050611852565b005b61085e6004803603604081101561072a57600080fd5b810190808035906020019064010000000081111561074757600080fd5b82018360208201111561075957600080fd5b8035906020019184602083028401116401000000008311171561077b57600080fd5b919080806020026020016040519081016040528093929190818152602001838360200280828437600081840152601f19601f820116905080830192505050505050509192919290803590602001906401000000008111156107db57600080fd5b8201836020820111156107ed57600080fd5b8035906020019184602083028401116401000000008311171561080f57600080fd5b919080806020026020016040519081016040528093929190818152602001838360200280828437600081840152601f19601f82011690508083019250505050505050919291929050505061198e565b6040518080602001828103825283818151815260200191508051906020019060200280838360005b838110156108a1578082015181840152602081019050610886565b505050509050019250505060405180910390f35b6108bd611ad4565b005b6109ac600480360360808110156108d557600080fd5b81019080803573ffffffffffffffffffffffffffffffffffffffff16906020019092919080359060200190929190803590602001909291908035906020019064010000000081111561092657600080fd5b82018360208201111561093857600080fd5b8035906020019184600183028401116401000000008311171561095a57600080fd5b91908080601f016020809104026020016040519081016040528093929190818152602001838380828437600081840152601f19601f820116905080830192505050505050509192919290505050611c0f565b005b610a67600480360360208110156109c457600080fd5b81019080803590602001906401000000008111156109e157600080fd5b8201836020820111156109f357600080fd5b80359060200191846001830284011164010000000083111715610a1557600080fd5b91908080601f016020809104026020016040519081016040528093929190818152602001838380828437600081840152601f19601f820116905080830192505050505050509192919290505050611d17565b005b610a71611d23565b6040518082815260200191505060405180910390f35b610a8f611d29565b604051808273ffffffffffffffffffffffffffffffffffffffff1673ffffffffffffffffffffffffffffffffffffffff16815260200191505060405180910390f35b610ad9611d53565b604051808215151515815260200191505060405180910390f35b610afb611db2565b6040518080602001828103825283818151815260200191508051906020019080838360005b83811015610b3b578082015181840152602081019050610b20565b50505050905090810190601f168015610b685780820380516001836020036101000a031916815260200191505b509250505060405180910390f35b610bc460048036036040811015610b8c57600080fd5b81019080803573ffffffffffffffffffffffffffffffffffffffff169060200190929190803515159060200190929190505050611e50565b005b610dc760048036036080811015610bdc57600080fd5b81019080803573ffffffffffffffffffffffffffffffffffffffff16906020019092919080359060200190640100000000811115610c1957600080fd5b820183602082011115610c2b57600080fd5b80359060200191846020830284011164010000000083111715610c4d57600080fd5b919080806020026020016040519081016040528093929190818152602001838360200280828437600081840152601f19601f82011690508083019250505050505050919291929080359060200190640100000000811115610cad57600080fd5b820183602082011115610cbf57600080fd5b80359060200191846020830284011164010000000083111715610ce157600080fd5b919080806020026020016040519081016040528093929190818152602001838360200280828437600081840152601f19601f82011690508083019250505050505050919291929080359060200190640100000000811115610d4157600080fd5b820183602082011115610d5357600080fd5b80359060200191846001830284011164010000000083111715610d7557600080fd5b91908080601f016020809104026020016040519081016040528093929190818152602001838380828437600081840152601f19601f820116905080830192505050505050509192919290505050611f51565b005b610df560048036036020811015610ddf57600080fd5b81019080803590602001909291905050506120a6565b6040518082815260200191505060405180910390f35b610e3760048036036020811015610e2157600080fd5b81019080803590602001909291905050506120c3565b604051808273ffffffffffffffffffffffffffffffffffffffff1673ffffffffffffffffffffffffffffffffffffffff16815260200191505060405180910390f35b610f4f60048036036040811015610e8f57600080fd5b81019080803573ffffffffffffffffffffffffffffffffffffffff16906020019092919080359060200190640100000000811115610ecc57600080fd5b820183602082011115610ede57600080fd5b80359060200191846020830284011164010000000083111715610f0057600080fd5b919080806020026020016040519081016040528093929190818152602001838360200280828437600081840152601f19601f8201169050808301925050505050505091929192905050506120f6565b005b610f7d60048036036020811015610f6757600080fd5b81019080803590602001909291905050506121c0565b604051808581526020018473ffffffffffffffffffffffffffffffffffffffff1673ffffffffffffffffffffffffffffffffffffffff16815260200183815260200180602001828103825283818151815260200191508051906020019080838360005b83811015610ffb578082015181840152602081019050610fe0565b50505050905090810190601f1680156110285780820380516001836020036101000a031916815260200191505b509550505050505060405180910390f35b6111b36004803603608081101561104f57600080fd5b81019080803573ffffffffffffffffffffffffffffffffffffffff169060200190929190803590602001909291908035906020019064010000000081111561109657600080fd5b8201836020820111156110a857600080fd5b803590602001918460018302840111640100000000831117156110ca57600080fd5b91908080601f016020809104026020016040519081016040528093929190818152602001838380828437600081840152601f19601f8201169050808301925050505050505091929192908035906020019064010000000081111561112d57600080fd5b82018360208201111561113f57600080fd5b8035906020019184600183028401116401000000008311171561116157600080fd5b91908080601f016020809104026020016040519081016040528093929190818152602001838380828437600081840152601f19601f8201169050808301925050505050505091929192905050506122a8565b6040518082815260200191505060405180910390f35b61122b600480360360408110156111df57600080fd5b81019080803573ffffffffffffffffffffffffffffffffffffffff169060200190929190803573ffffffffffffffffffffffffffffffffffffffff169060200190929190505050612515565b604051808215151515815260200191505060405180910390f35b611352600480360360a081101561125b57600080fd5b81019080803573ffffffffffffffffffffffffffffffffffffffff169060200190929190803573ffffffffffffffffffffffffffffffffffffffff1690602001909291908035906020019092919080359060200190929190803590602001906401000000008111156112cc57600080fd5b8201836020820111156112de57600080fd5b8035906020019184600183028401116401000000008311171561130057600080fd5b91908080601f016020809104026020016040519081016040528093929190818152602001838380828437600081840152601f19601f820116905080830192505050505050509192919290505050612529565b005b6113966004803603602081101561136a57600080fd5b81019080803573ffffffffffffffffffffffffffffffffffffffff169060200190929190505050612665565b005b6113e4600480360360408110156113ae57600080fd5b81019080803573ffffffffffffffffffffffffffffffffffffffff169060200190929190803590602001909291905050506126eb565b6040518082815260200191505060405180910390f35b60008060008473ffffffffffffffffffffffffffffffffffffffff1673ffffffffffffffffffffffffffffffffffffffff168152602001908152602001600020600083815260200190815260200160002054905092915050565b60006301ffc9a760e01b7bffffffffffffffffffffffffffffffffffffffffffffffffffffffff1916827bffffffffffffffffffffffffffffffffffffffffffffffffffffffff191614806114ed575063d9b67a2660e01b7bffffffffffffffffffffffffffffffffffffffffffffffffffffffff1916827bffffffffffffffffffffffffffffffffffffffffffffffffffffffff1916145b156114fb5760019050611500565b600090505b919050565b600860008473ffffffffffffffffffffffffffffffffffffffff1673ffffffffffffffffffffffffffffffffffffffff1681526020019081526020016000208290806001815401808255809150509060018203906000526020600020016000909192909190915055506115b0848484846040518060400160405280600381526020017f3078300000000000000000000000000000000000000000000000000000000000815250612529565b7ff755dad42e68518e9ee94ed67b2c50260b048b4bad0c2d4f1ed4966f5fe884a2826040518082815260200191505060405180910390a150505050565b60098054600181600116156101000203166002900480601f0160208091040260200160405190810160405280929190818152602001828054600181600116156101000203166002900480156116835780601f1061165857610100808354040283529160200191611683565b820191906000526020600020905b81548152906001019060200180831161166657829003601f168201915b505050505081565b606061169682612719565b6116eb576040517f08c379a00000000000000000000000000000000000000000000000000000000081526004018080602001828103825260258152602001806140ac6025913960400191505060405180910390fd5b61179760028054600181600116156101000203166002900480601f0160208091040260200160405190810160405280929190818152602001828054600181600116156101000203166002900480156117845780601f1061175957610100808354040283529160200191611784565b820191906000526020600020905b81548152906001019060200180831161176757829003601f168201915b505050505061179284612785565b6128b2565b9050919050565b606080600860008473ffffffffffffffffffffffffffffffffffffffff1673ffffffffffffffffffffffffffffffffffffffff16815260200190815260200160002080548060200260200160405190810160405280929190818152602001828054801561182a57602002820191906000526020600020905b815481526020019060010190808311611816575b5050505050905080915050919050565b60066020528060005260406000206000915090505481565b8473ffffffffffffffffffffffffffffffffffffffff163373ffffffffffffffffffffffffffffffffffffffff16148061189257506118918533612515565b5b6118e7576040517f08c379a000000000000000000000000000000000000000000000000000000000815260040180806020018281038252602f8152602001806140fd602f913960400191505060405180910390fd5b600073ffffffffffffffffffffffffffffffffffffffff168473ffffffffffffffffffffffffffffffffffffffff16141561196d576040517f08c379a000000000000000000000000000000000000000000000000000000000815260040180806020018281038252603081526020018061407c6030913960400191505060405180910390fd5b611979858585856128f6565b611987858585855a86612c5b565b5050505050565b606081518351146119ea576040517f08c379a000000000000000000000000000000000000000000000000000000000815260040180806020018281038252602c8152602001806140d1602c913960400191505060405180910390fd5b60608351604051908082528060200260200182016040528015611a1c5781602001602082028038833980820191505090505b50905060008090505b8451811015611ac957600080868381518110611a3d57fe5b602002602001015173ffffffffffffffffffffffffffffffffffffffff1673ffffffffffffffffffffffffffffffffffffffff1681526020019081526020016000206000858381518110611a8d57fe5b6020026020010151815260200190815260200160002054828281518110611ab057fe5b6020026020010181815250508080600101915050611a25565b508091505092915050565b611adc611d53565b611b4e576040517f08c379a00000000000000000000000000000000000000000000000000000000081526004018080602001828103825260208152602001807f4f776e61626c653a2063616c6c6572206973206e6f7420746865206f776e657281525060200191505060405180910390fd5b600073ffffffffffffffffffffffffffffffffffffffff16600360009054906101000a900473ffffffffffffffffffffffffffffffffffffffff1673ffffffffffffffffffffffffffffffffffffffff167f8be0079c531659141344cd1fd0a4f28419497f9722a3daafe3b4186f6b6457e060405160405180910390a36000600360006101000a81548173ffffffffffffffffffffffffffffffffffffffff021916908373ffffffffffffffffffffffffffffffffffffffff160217905550565b823373ffffffffffffffffffffffffffffffffffffffff166005600083815260200190815260200160002060009054906101000a900473ffffffffffffffffffffffffffffffffffffffff1673ffffffffffffffffffffffffffffffffffffffff1614611cc7576040517f08c379a00000000000000000000000000000000000000000000000000000000081526004018080602001828103825260318152602001806142016031913960400191505060405180910390fd5b611cd385858585612f19565b611cf983600660008781526020019081526020016000205461306890919063ffffffff16565b60066000868152602001908152602001600020819055505050505050565b611d20816130f0565b50565b60045481565b6000600360009054906101000a900473ffffffffffffffffffffffffffffffffffffffff16905090565b6000600360009054906101000a900473ffffffffffffffffffffffffffffffffffffffff1673ffffffffffffffffffffffffffffffffffffffff16611d9661310a565b73ffffffffffffffffffffffffffffffffffffffff1614905090565b600a8054600181600116156101000203166002900480601f016020809104026020016040519081016040528092919081815260200182805460018160011615610100020316600290048015611e485780601f10611e1d57610100808354040283529160200191611e48565b820191906000526020600020905b815481529060010190602001808311611e2b57829003601f168201915b505050505081565b80600160003373ffffffffffffffffffffffffffffffffffffffff1673ffffffffffffffffffffffffffffffffffffffff16815260200190815260200160002060008473ffffffffffffffffffffffffffffffffffffffff1673ffffffffffffffffffffffffffffffffffffffff16815260200190815260200160002060006101000a81548160ff0219169083151502179055508173ffffffffffffffffffffffffffffffffffffffff163373ffffffffffffffffffffffffffffffffffffffff167f17307eab39ab6107e8899845ad3d59bd9653f200f220920489ca2b5937696c3183604051808215151515815260200191505060405180910390a35050565b60008090505b8351811015612093576000848281518110611f6e57fe5b602002602001015190503373ffffffffffffffffffffffffffffffffffffffff166005600083815260200190815260200160002060009054906101000a900473ffffffffffffffffffffffffffffffffffffffff1673ffffffffffffffffffffffffffffffffffffffff161461202f576040517f08c379a000000000000000000000000000000000000000000000000000000000815260040180806020018281038252602f815260200180613fc8602f913960400191505060405180910390fd5b600084838151811061203d57fe5b6020026020010151905061206d81600660008581526020019081526020016000205461306890919063ffffffff16565b600660008481526020019081526020016000208190555050508080600101915050611f57565b506120a084848484613112565b50505050565b600060066000838152602001908152602001600020549050919050565b60056020528060005260406000206000915054906101000a900473ffffffffffffffffffffffffffffffffffffffff1681565b600073ffffffffffffffffffffffffffffffffffffffff168273ffffffffffffffffffffffffffffffffffffffff16141561217c576040517f08c379a000000000000000000000000000000000000000000000000000000000815260040180806020018281038252602c8152602001806141d5602c913960400191505060405180910390fd5b60008090505b81518110156121bb57600082828151811061219957fe5b602002602001015190506121ad8482613399565b508080600101915050612182565b505050565b60076020528060005260406000206000915090508060000154908060010160009054906101000a900473ffffffffffffffffffffffffffffffffffffffff1690806002015490806003018054600181600116156101000203166002900480601f01602080910402602001604051908101604052809291908181526020018280546001816001161561010002031660029004801561229e5780601f106122735761010080835404028352916020019161229e565b820191906000526020600020905b81548152906001019060200180831161228157829003601f168201915b5050505050905084565b6000806122b36134a8565b90506122bd6134c5565b336005600083815260200190815260200160002060006101000a81548173ffffffffffffffffffffffffffffffffffffffff021916908373ffffffffffffffffffffffffffffffffffffffff1602179055506000845111156123b757807f6bb7ff708619ba0610cba295a58592e0451dee2622938c8755667688daf3529b856040518080602001828103825283818151815260200191508051906020019080838360005b8381101561237c578082015181840152602081019050612361565b50505050905090810190601f1680156123a95780820380516001836020036101000a031916815260200191505b509250505060405180910390a25b600860003373ffffffffffffffffffffffffffffffffffffffff1673ffffffffffffffffffffffffffffffffffffffff16815260200190815260200160002081908060018154018082558091505090600182039060005260206000200160009091929091909150555060405180608001604052808281526020018773ffffffffffffffffffffffffffffffffffffffff16815260200186815260200185815250600760008381526020019081526020016000206000820151816000015560208201518160010160006101000a81548173ffffffffffffffffffffffffffffffffffffffff021916908373ffffffffffffffffffffffffffffffffffffffff1602179055506040820151816002015560608201518160030190805190602001906124e1929190613e77565b509050506124f186828786612f19565b84600660008381526020019081526020016000208190555080915050949350505050565b600061252183836134d9565b905092915050565b8473ffffffffffffffffffffffffffffffffffffffff163373ffffffffffffffffffffffffffffffffffffffff16148061256957506125688533612515565b5b6125be576040517f08c379a000000000000000000000000000000000000000000000000000000000815260040180806020018281038252602a81526020018061401d602a913960400191505060405180910390fd5b600073ffffffffffffffffffffffffffffffffffffffff168473ffffffffffffffffffffffffffffffffffffffff161415612644576040517f08c379a000000000000000000000000000000000000000000000000000000000815260040180806020018281038252602b815260200180613f9d602b913960400191505060405180910390fd5b6126508585858561356d565b61265e858585855a86613761565b5050505050565b61266d611d53565b6126df576040517f08c379a00000000000000000000000000000000000000000000000000000000081526004018080602001828103825260208152602001807f4f776e61626c653a2063616c6c6572206973206e6f7420746865206f776e657281525060200191505060405180910390fd5b6126e88161399d565b50565b6008602052816000526040600020818154811061270457fe5b90600052602060002001600091509150505481565b60008073ffffffffffffffffffffffffffffffffffffffff166005600084815260200190815260200160002060009054906101000a900473ffffffffffffffffffffffffffffffffffffffff1673ffffffffffffffffffffffffffffffffffffffff1614159050919050565b606060008214156127cd576040518060400160405280600181526020017f300000000000000000000000000000000000000000000000000000000000000081525090506128ad565b600082905060005b600082146127f7578080600101915050600a82816127ef57fe5b0491506127d5565b6060816040519080825280601f01601f19166020018201604052801561282c5781602001600182028038833980820191505090505b50905060006001830390505b600086146128a557600a868161284a57fe5b0660300160f81b8282806001900393508151811061286457fe5b60200101907effffffffffffffffffffffffffffffffffffffffffffffffffffffffffffff1916908160001a905350600a868161289d57fe5b049550612838565b819450505050505b919050565b60606128ee8383604051806020016040528060008152506040518060200160405280600081525060405180602001604052806000815250613ae3565b905092915050565b8051825114612950576040517f08c379a00000000000000000000000000000000000000000000000000000000081526004018080602001828103825260358152602001806140476035913960400191505060405180910390fd5b60008251905060008090505b81811015612b4d576129ec83828151811061297357fe5b60200260200101516000808973ffffffffffffffffffffffffffffffffffffffff1673ffffffffffffffffffffffffffffffffffffffff16815260200190815260200160002060008785815181106129c757fe5b6020026020010151815260200190815260200160002054613da990919063ffffffff16565b6000808873ffffffffffffffffffffffffffffffffffffffff1673ffffffffffffffffffffffffffffffffffffffff1681526020019081526020016000206000868481518110612a3857fe5b6020026020010151815260200190815260200160002081905550612ada838281518110612a6157fe5b60200260200101516000808873ffffffffffffffffffffffffffffffffffffffff1673ffffffffffffffffffffffffffffffffffffffff1681526020019081526020016000206000878581518110612ab557fe5b602002602001015181526020019081526020016000205461306890919063ffffffff16565b6000808773ffffffffffffffffffffffffffffffffffffffff1673ffffffffffffffffffffffffffffffffffffffff1681526020019081526020016000206000868481518110612b2657fe5b6020026020010151815260200190815260200160002081905550808060010191505061295c565b508373ffffffffffffffffffffffffffffffffffffffff168573ffffffffffffffffffffffffffffffffffffffff163373ffffffffffffffffffffffffffffffffffffffff167f4a39dc06d4c0dbc64b70af90fd698a233a518aa5d07e595d983b8c0526c8f7fb8686604051808060200180602001838103835285818151815260200191508051906020019060200280838360005b83811015612bfd578082015181840152602081019050612be2565b50505050905001838103825284818151815260200191508051906020019060200280838360005b83811015612c3f578082015181840152602081019050612c24565b5050505090500194505050505060405180910390a45050505050565b612c7a8573ffffffffffffffffffffffffffffffffffffffff16613e32565b15612f115760008573ffffffffffffffffffffffffffffffffffffffff1663bc197c8184338a8989886040518763ffffffff1660e01b8152600401808673ffffffffffffffffffffffffffffffffffffffff1673ffffffffffffffffffffffffffffffffffffffff1681526020018573ffffffffffffffffffffffffffffffffffffffff1673ffffffffffffffffffffffffffffffffffffffff168152602001806020018060200180602001848103845287818151815260200191508051906020019060200280838360005b83811015612d61578082015181840152602081019050612d46565b50505050905001848103835286818151815260200191508051906020019060200280838360005b83811015612da3578082015181840152602081019050612d88565b50505050905001848103825285818151815260200191508051906020019080838360005b83811015612de2578082015181840152602081019050612dc7565b50505050905090810190601f168015612e0f5780820380516001836020036101000a031916815260200191505b5098505050505050505050602060405180830381600088803b158015612e3457600080fd5b5087f1158015612e48573d6000803e3d6000fd5b50505050506040513d6020811015612e5f57600080fd5b8101908080519060200190929190505050905063bc197c8160e01b7bffffffffffffffffffffffffffffffffffffffffffffffffffffffff1916817bffffffffffffffffffffffffffffffffffffffffffffffffffffffff191614612f0f576040517f08c379a000000000000000000000000000000000000000000000000000000000815260040180806020018281038252603f81526020018061415c603f913960400191505060405180910390fd5b505b505050505050565b612f7b826000808773ffffffffffffffffffffffffffffffffffffffff1673ffffffffffffffffffffffffffffffffffffffff16815260200190815260200160002060008681526020019081526020016000205461306890919063ffffffff16565b6000808673ffffffffffffffffffffffffffffffffffffffff1673ffffffffffffffffffffffffffffffffffffffff1681526020019081526020016000206000858152602001908152602001600020819055508373ffffffffffffffffffffffffffffffffffffffff16600073ffffffffffffffffffffffffffffffffffffffff163373ffffffffffffffffffffffffffffffffffffffff167fc3d58168c5ae7397731d063d5bbf3d657854427343f4c083240f7aacaa2d0f628686604051808381526020018281526020019250505060405180910390a461306260008585855a86613761565b50505050565b6000808284019050838110156130e6576040517f08c379a00000000000000000000000000000000000000000000000000000000081526004018080602001828103825260168152602001807f536166654d617468236164643a204f564552464c4f570000000000000000000081525060200191505060405180910390fd5b8091505092915050565b8060029080519060200190613106929190613ef7565b5050565b600033905090565b815183511461316c576040517f08c379a000000000000000000000000000000000000000000000000000000000815260040180806020018281038252603081526020018061412c6030913960400191505060405180910390fd5b60008351905060008090505b8181101561327b5761320884828151811061318f57fe5b60200260200101516000808973ffffffffffffffffffffffffffffffffffffffff1673ffffffffffffffffffffffffffffffffffffffff16815260200190815260200160002060008885815181106131e357fe5b602002602001015181526020019081526020016000205461306890919063ffffffff16565b6000808873ffffffffffffffffffffffffffffffffffffffff1673ffffffffffffffffffffffffffffffffffffffff168152602001908152602001600020600087848151811061325457fe5b60200260200101518152602001908152602001600020819055508080600101915050613178565b508473ffffffffffffffffffffffffffffffffffffffff16600073ffffffffffffffffffffffffffffffffffffffff163373ffffffffffffffffffffffffffffffffffffffff167f4a39dc06d4c0dbc64b70af90fd698a233a518aa5d07e595d983b8c0526c8f7fb8787604051808060200180602001838103835285818151815260200191508051906020019060200280838360005b8381101561332c578082015181840152602081019050613311565b50505050905001838103825284818151815260200191508051906020019060200280838360005b8381101561336e578082015181840152602081019050613353565b5050505090500194505050505060405180910390a461339260008686865a87612c5b565b5050505050565b803373ffffffffffffffffffffffffffffffffffffffff166005600083815260200190815260200160002060009054906101000a900473ffffffffffffffffffffffffffffffffffffffff1673ffffffffffffffffffffffffffffffffffffffff1614613451576040517f08c379a00000000000000000000000000000000000000000000000000000000081526004018080602001828103825260318152602001806142016031913960400191505060405180910390fd5b826005600084815260200190815260200160002060006101000a81548173ffffffffffffffffffffffffffffffffffffffff021916908373ffffffffffffffffffffffffffffffffffffffff160217905550505050565b60006134c0600160045461306890919063ffffffff16565b905090565b600460008154809291906001019190505550565b6000600160008473ffffffffffffffffffffffffffffffffffffffff1673ffffffffffffffffffffffffffffffffffffffff16815260200190815260200160002060008373ffffffffffffffffffffffffffffffffffffffff1673ffffffffffffffffffffffffffffffffffffffff16815260200190815260200160002060009054906101000a900460ff16905092915050565b6135cf816000808773ffffffffffffffffffffffffffffffffffffffff1673ffffffffffffffffffffffffffffffffffffffff168152602001908152602001600020600085815260200190815260200160002054613da990919063ffffffff16565b6000808673ffffffffffffffffffffffffffffffffffffffff1673ffffffffffffffffffffffffffffffffffffffff168152602001908152602001600020600084815260200190815260200160002081905550613684816000808673ffffffffffffffffffffffffffffffffffffffff1673ffffffffffffffffffffffffffffffffffffffff16815260200190815260200160002060008581526020019081526020016000205461306890919063ffffffff16565b6000808573ffffffffffffffffffffffffffffffffffffffff1673ffffffffffffffffffffffffffffffffffffffff1681526020019081526020016000206000848152602001908152602001600020819055508273ffffffffffffffffffffffffffffffffffffffff168473ffffffffffffffffffffffffffffffffffffffff163373ffffffffffffffffffffffffffffffffffffffff167fc3d58168c5ae7397731d063d5bbf3d657854427343f4c083240f7aacaa2d0f628585604051808381526020018281526020019250505060405180910390a450505050565b6137808573ffffffffffffffffffffffffffffffffffffffff16613e32565b156139955760008573ffffffffffffffffffffffffffffffffffffffff1663f23a6e6184338a8989886040518763ffffffff1660e01b8152600401808673ffffffffffffffffffffffffffffffffffffffff1673ffffffffffffffffffffffffffffffffffffffff1681526020018573ffffffffffffffffffffffffffffffffffffffff1673ffffffffffffffffffffffffffffffffffffffff16815260200184815260200183815260200180602001828103825283818151815260200191508051906020019080838360005b8381101561386857808201518184015260208101905061384d565b50505050905090810190601f1680156138955780820380516001836020036101000a031916815260200191505b509650505050505050602060405180830381600088803b1580156138b857600080fd5b5087f11580156138cc573d6000803e3d6000fd5b50505050506040513d60208110156138e357600080fd5b8101908080519060200190929190505050905063f23a6e6160e01b7bffffffffffffffffffffffffffffffffffffffffffffffffffffffff1916817bffffffffffffffffffffffffffffffffffffffffffffffffffffffff191614613993576040517f08c379a000000000000000000000000000000000000000000000000000000000815260040180806020018281038252603a81526020018061419b603a913960400191505060405180910390fd5b505b505050505050565b600073ffffffffffffffffffffffffffffffffffffffff168173ffffffffffffffffffffffffffffffffffffffff161415613a23576040517f08c379a0000000000000000000000000000000000000000000000000000000008152600401808060200182810382526026815260200180613ff76026913960400191505060405180910390fd5b8073ffffffffffffffffffffffffffffffffffffffff16600360009054906101000a900473ffffffffffffffffffffffffffffffffffffffff1673ffffffffffffffffffffffffffffffffffffffff167f8be0079c531659141344cd1fd0a4f28419497f9722a3daafe3b4186f6b6457e060405160405180910390a380600360006101000a81548173ffffffffffffffffffffffffffffffffffffffff021916908373ffffffffffffffffffffffffffffffffffffffff16021790555050565b6060808690506060869050606086905060608690506060869050606081518351855187518951010101016040519080825280601f01601f191660200182016040528015613b3f5781602001600182028038833980820191505090505b5090506060819050600080905060008090505b8851811015613bc057888181518110613b6757fe5b602001015160f81c60f81b838380600101945081518110613b8457fe5b60200101907effffffffffffffffffffffffffffffffffffffffffffffffffffffffffffff1916908160001a9053508080600101915050613b52565b5060008090505b8751811015613c3557878181518110613bdc57fe5b602001015160f81c60f81b838380600101945081518110613bf957fe5b60200101907effffffffffffffffffffffffffffffffffffffffffffffffffffffffffffff1916908160001a9053508080600101915050613bc7565b5060008090505b8651811015613caa57868181518110613c5157fe5b602001015160f81c60f81b838380600101945081518110613c6e57fe5b60200101907effffffffffffffffffffffffffffffffffffffffffffffffffffffffffffff1916908160001a9053508080600101915050613c3c565b5060008090505b8551811015613d1f57858181518110613cc657fe5b602001015160f81c60f81b838380600101945081518110613ce357fe5b60200101907effffffffffffffffffffffffffffffffffffffffffffffffffffffffffffff1916908160001a9053508080600101915050613cb1565b5060008090505b8451811015613d9457848181518110613d3b57fe5b602001015160f81c60f81b838380600101945081518110613d5857fe5b60200101907effffffffffffffffffffffffffffffffffffffffffffffffffffffffffffff1916908160001a9053508080600101915050613d26565b50819850505050505050505095945050505050565b600082821115613e21576040517f08c379a00000000000000000000000000000000000000000000000000000000081526004018080602001828103825260178152602001807f536166654d617468237375623a20554e444552464c4f5700000000000000000081525060200191505060405180910390fd5b600082840390508091505092915050565b600080823f90506000801b8114158015613e6f57507fc5d2460186f7233c927e7db2dcc703c0e500b653ca82273b7bfad8045d85a47060001b8114155b915050919050565b828054600181600116156101000203166002900490600052602060002090601f016020900481019282601f10613eb857805160ff1916838001178555613ee6565b82800160010185558215613ee6579182015b82811115613ee5578251825591602001919060010190613eca565b5b509050613ef39190613f77565b5090565b828054600181600116156101000203166002900490600052602060002090601f016020900481019282601f10613f3857805160ff1916838001178555613f66565b82800160010185558215613f66579182015b82811115613f65578251825591602001919060010190613f4a565b5b509050613f739190613f77565b5090565b613f9991905b80821115613f95576000816000905550600101613f7d565b5090565b9056fe4552433131353523736166655472616e7366657246726f6d3a20494e56414c49445f524543495049454e54455243313135355472616461626c652362617463684d696e743a204f4e4c595f43524541544f525f414c4c4f5745444f776e61626c653a206e6577206f776e657220697320746865207a65726f20616464726573734552433131353523736166655472616e7366657246726f6d3a20494e56414c49445f4f50455241544f5245524331313535235f7361666542617463685472616e7366657246726f6d3a20494e56414c49445f4152524159535f4c454e47544845524331313535237361666542617463685472616e7366657246726f6d3a20494e56414c49445f524543495049454e544552433732315472616461626c65237572693a204e4f4e4558495354454e545f544f4b454e455243313135352362616c616e63654f6642617463683a20494e56414c49445f41525241595f4c454e47544845524331313535237361666542617463685472616e7366657246726f6d3a20494e56414c49445f4f50455241544f52455243313135354d696e744275726e2362617463684d696e743a20494e56414c49445f4152524159535f4c454e47544845524331313535235f63616c6c6f6e45524331313535426174636852656365697665643a20494e56414c49445f4f4e5f524543454956455f4d45535341474545524331313535235f63616c6c6f6e4552433131353552656365697665643a20494e56414c49445f4f4e5f524543454956455f4d455353414745455243313135355472616461626c652373657443726561746f723a20494e56414c49445f414444524553532e455243313135355472616461626c652363726561746f724f6e6c793a204f4e4c595f43524541544f525f414c4c4f574544a265627a7a7231582034d41fcdae500067f3be7928abb9c8b15a637f99dc83597787478b717f470cf464736f6c63430005100032",
  "source": "pragma solidity ^0.5.0;\n\nimport \"@openzeppelin/contracts/ownership/Ownable.sol\";\nimport 'multi-token-standard/contracts/tokens/ERC1155/ERC1155.sol';\nimport 'multi-token-standard/contracts/tokens/ERC1155/ERC1155Metadata.sol';\nimport 'multi-token-standard/contracts/tokens/ERC1155/ERC1155MintBurn.sol';\nimport \"./Strings.sol\";\n\ncontract OwnableDelegateProxy { }\n\ncontract ProxyRegistry {\n  mapping(address => OwnableDelegateProxy) public proxies;\n}\n\n/**\n * @title ERC1155Tradable\n * ERC1155Tradable - ERC1155 contract that whitelists an operator address, has create and mint functionality, and supports useful standards from OpenZeppelin,\n  like _exists(), name(), symbol(), and totalSupply()\n */\ncontract ERC1155Tradable is ERC1155, ERC1155MintBurn, ERC1155Metadata, Ownable {\n  using Strings for string;\n\n  uint256 public _currentTokenID = 0;\n  event tokenTransfer(uint256 _tokenId);\n  mapping (uint256 => address) public creators;\n  mapping (uint256 => uint256) public tokenSupply;\n  mapping(uint256 => ercToken) public ercTokens;\n  mapping(address => uint256[]) public ercTokenOwner;\n\n    struct ercToken {\n        uint256 id;\n        address payable owner;\n        uint256 totalSupply;\n        string metaData;\n    }\n  // Contract name\n  string public name;\n  // Contract symbol\n  string public symbol;\n\n  /**\n   * @dev Require msg.sender to be the creator of the token id\n   */\n  modifier creatorOnly(uint256 _id) {\n    require(creators[_id] == msg.sender, \"ERC1155Tradable#creatorOnly: ONLY_CREATOR_ALLOWED\");\n    _;\n  }\n\n  /**\n   * @dev Require msg.sender to own more than 0 of the token id\n   */\n  modifier ownersOnly(uint256 _id) {\n    require(balances[msg.sender][_id] > 0, \"ERC1155Tradable#ownersOnly: ONLY_OWNERS_ALLOWED\");\n    _;\n  }\n\n  constructor(\n    string memory _name,\n    string memory _symbol\n  ) public {\n    name = _name;\n    symbol = _symbol;\n  }\n\n  function uri(\n    uint256 _id\n  ) public view returns (string memory) {\n    require(_exists(_id), \"ERC721Tradable#uri: NONEXISTENT_TOKEN\");\n    return Strings.strConcat(\n      baseMetadataURI,\n      Strings.uint2str(_id)\n    );\n  }\n\n  /**\n    * @dev Returns the total quantity for a token ID\n    * @param _id uint256 ID of the token to query\n    * @return amount of token in existence\n    */\n  function totalSupply(\n    uint256 _id\n  ) public view returns (uint256) {\n    return tokenSupply[_id];\n  }\n\n  /**\n     * @dev Gets an array of owned auctions\n     * @param _owner address of the auction owner\n     */\n    function getTokensOfERC1155(address _owner)\n        public\n        view\n        returns (uint256[] memory)\n    {\n        uint256[] memory ownedERCTokens = ercTokenOwner[_owner];\n        return ownedERCTokens;\n    }\n\n  /**\n   * @dev Will update the base URL of token's URI\n   * @param _newBaseMetadataURI New base URL of token's URI\n   */\n  function setBaseMetadataURI(\n    string memory _newBaseMetadataURI\n  ) public {\n    _setBaseMetadataURI(_newBaseMetadataURI);\n  }\n\n  /**\n    * @dev Creates a new token type and assigns _initialSupply to an address\n    * NOTE: remove onlyOwner if you want third parties to create new tokens on your contract (which may change your IDs)\n    * @param _initialOwner address of the first owner of the token\n    * @param _initialSupply amount to supply the first owner\n    * @param _uri Optional URI for this token type\n    * @param _data Data to pass if receiver is contract\n    * @return The newly created token ID\n    */\n  function create(\n    address payable _initialOwner,\n    uint256 _initialSupply,                                     \n    string memory _uri,\n    bytes memory _data\n  ) public returns (uint256) {\n\n    uint256 _id = _getNextTokenID();\n    _incrementTokenTypeId();\n    creators[_id] = msg.sender;\n\n    if (bytes(_uri).length > 0) {\n      emit URI(_uri, _id);\n    }\n    ercTokenOwner[msg.sender].push(_id);\n\n    ercTokens[_id] = ercToken(\n            _id,\n            _initialOwner,\n            _initialSupply,\n            _uri\n        );\n\n    _mint(_initialOwner, _id, _initialSupply, _data);\n    tokenSupply[_id] = _initialSupply;\n    return _id;\n  }\n\n  /**\n    * @dev Mints some amount of tokens to an address\n    * @param _to          Address of the future owner of the token\n    * @param _id          Token ID to mint\n    * @param _quantity    Amount of tokens to mint\n    * @param _data        Data to pass if receiver is contract\n    */\n  function mint(\n    address _to,\n    uint256 _id,\n    uint256 _quantity,\n    bytes memory _data\n  ) public creatorOnly(_id) {\n    _mint(_to, _id, _quantity, _data);\n    tokenSupply[_id] = tokenSupply[_id].add(_quantity);\n  }\n\n  /**\n    * @dev Mint tokens for each id in _ids\n    * @param _to          The address to mint tokens to\n    * @param _ids         Array of ids to mint\n    * @param _quantities  Array of amounts of tokens to mint per id\n    * @param _data        Data to pass if receiver is contract\n    */\n  function batchMint(\n    address _to,\n    uint256[] memory _ids,\n    uint256[] memory _quantities,\n    bytes memory _data\n  ) public {\n    for (uint256 i = 0; i < _ids.length; i++) {\n      uint256 _id = _ids[i];\n      require(creators[_id] == msg.sender, \"ERC1155Tradable#batchMint: ONLY_CREATOR_ALLOWED\");\n      uint256 quantity = _quantities[i];\n      tokenSupply[_id] = tokenSupply[_id].add(quantity);\n    }\n    _batchMint(_to, _ids, _quantities, _data);\n  }\n\n  /**\n    * @dev Change the creator address for given tokens\n    * @param _to   Address of the new creator\n    * @param _ids  Array of Token IDs to change creator\n    */\n  function setCreator(\n    address _to,\n    uint256[] memory _ids\n  ) public {\n    require(_to != address(0), \"ERC1155Tradable#setCreator: INVALID_ADDRESS.\");\n    for (uint256 i = 0; i < _ids.length; i++) {\n      uint256 id = _ids[i];\n      _setCreator(_to, id);\n    }\n  }\n\n  /**\n   * Override isApprovedForAll to whitelist user's OpenSea proxy accounts to enable gas-free listings.\n   */\n  function isApprovedForAll(\n    address _owner,\n    address _operator\n  ) public view returns (bool isOperator) {\n    // Whitelist OpenSea proxy contract for easy trading.\n    // ProxyRegistry proxyRegistry = ProxyRegistry(proxyRegistryAddress);\n    // if (address(proxyRegistry.proxies(_owner)) == _operator) {\n    //   return true;\n    // }\n\n    return ERC1155.isApprovedForAll(_owner, _operator);\n  }\n\n  /**\n    * @dev Change the creator address for given token\n    * @param _to   Address of the new creator\n    * @param _id  Token IDs to change creator of\n    */\n  function _setCreator(address _to, uint256 _id) internal creatorOnly(_id)\n  {\n      creators[_id] = _to;\n  }\n\n  /**\n    * @dev Returns whether the specified token exists by checking to see if it has a creator\n    * @param _id uint256 ID of the token to query the existence of\n    * @return bool whether the token exists\n    */\n  function _exists(\n    uint256 _id\n  ) internal view returns (bool) {\n    return creators[_id] != address(0);\n  }\n\n  /**\n    * @dev calculates the next token ID based on value of _currentTokenID\n    * @return uint256 for the next token ID\n    */\n  function _getNextTokenID() private view returns (uint256) {\n    return _currentTokenID.add(1);\n  }\n\n  function transferToken(\n        address _from,\n        address payable _to,\n        uint256 _token,\n        uint256 _amount    ) public {\n          ercTokenOwner[_to].push(_token);\n        safeTransferFrom( _from ,_to, _token, _amount, '0x0');\n        emit tokenTransfer(_token);\n    }\n\n  /**\n    * @dev increments the value of _currentTokenID\n    */\n  function _incrementTokenTypeId() private  {\n    _currentTokenID++;\n  }\n}\n",
  "sourcePath": "/Users/mac15/Desktop/amandeep/learningv2/src/contracts/ERC1155Tradable.sol",
  "compiler": {
    "name": "solc",
    "version": "0.5.16+commit.9c3226ce.Emscripten.clang"
  },
  "schemaVersion": "3.4.1",
  "updatedAt": "2021-08-09T05:53:04.736Z",
  "networkType": "ethereum",
  "devdoc": {
    "methods": {
      "balanceOf(address,uint256)": {
        "params": {
          "_id": "ID of the Token",
          "_owner": "The address of the token holder"
        },
        "return": "The _owner's balance of the Token type requested"
      },
      "balanceOfBatch(address[],uint256[])": {
        "params": {
          "_ids": "ID of the Tokens",
          "_owners": "The addresses of the token holders"
        },
        "return": "The _owner's balance of the Token types requested (i.e. balance for each (owner, id) pair)"
      },
      "batchMint(address,uint256[],uint256[],bytes)": {
        "details": "Mint tokens for each id in _ids",
        "params": {
          "_data": "Data to pass if receiver is contract",
          "_ids": "Array of ids to mint",
          "_quantities": "Array of amounts of tokens to mint per id",
          "_to": "The address to mint tokens to"
        }
      },
      "create(address,uint256,string,bytes)": {
        "details": "Creates a new token type and assigns _initialSupply to an address NOTE: remove onlyOwner if you want third parties to create new tokens on your contract (which may change your IDs)",
        "params": {
          "_data": "Data to pass if receiver is contract",
          "_initialOwner": "address of the first owner of the token",
          "_initialSupply": "amount to supply the first owner",
          "_uri": "Optional URI for this token type"
        },
        "return": "The newly created token ID"
      },
      "getTokensOfERC1155(address)": {
        "details": "Gets an array of owned auctions",
        "params": {
          "_owner": "address of the auction owner"
        }
      },
      "isOwner()": {
        "details": "Returns true if the caller is the current owner."
      },
      "mint(address,uint256,uint256,bytes)": {
        "details": "Mints some amount of tokens to an address",
        "params": {
          "_data": "Data to pass if receiver is contract",
          "_id": "Token ID to mint",
          "_quantity": "Amount of tokens to mint",
          "_to": "Address of the future owner of the token"
        }
      },
      "owner()": {
        "details": "Returns the address of the current owner."
      },
      "renounceOwnership()": {
        "details": "Leaves the contract without owner. It will not be possible to call `onlyOwner` functions anymore. Can only be called by the current owner.     * NOTE: Renouncing ownership will leave the contract without an owner, thereby removing any functionality that is only available to the owner."
      },
      "safeBatchTransferFrom(address,address,uint256[],uint256[],bytes)": {
        "params": {
          "_amounts": "Transfer amounts per token type",
          "_data": "Additional data with no specified format, sent in call to `_to`",
          "_from": "Source addresses",
          "_ids": "IDs of each token type",
          "_to": "Target addresses"
        }
      },
      "safeTransferFrom(address,address,uint256,uint256,bytes)": {
        "params": {
          "_amount": "Transfered amount",
          "_data": "Additional data with no specified format, sent in call to `_to`",
          "_from": "Source address",
          "_id": "ID of the token type",
          "_to": "Target address"
        }
      },
      "setApprovalForAll(address,bool)": {
        "params": {
          "_approved": "True if the operator is approved, false to revoke approval",
          "_operator": "Address to add to the set of authorized operators"
        }
      },
      "setBaseMetadataURI(string)": {
        "details": "Will update the base URL of token's URI",
        "params": {
          "_newBaseMetadataURI": "New base URL of token's URI"
        }
      },
      "setCreator(address,uint256[])": {
        "details": "Change the creator address for given tokens",
        "params": {
          "_ids": "Array of Token IDs to change creator",
          "_to": "Address of the new creator"
        }
      },
      "supportsInterface(bytes4)": {
        "params": {
          "_interfaceID": "The interface identifier, as specified in ERC-165"
        },
        "return": "`true` if the contract implements `_interfaceID` and"
      },
      "totalSupply(uint256)": {
        "details": "Returns the total quantity for a token ID",
        "params": {
          "_id": "uint256 ID of the token to query"
        },
        "return": "amount of token in existence"
      },
      "transferOwnership(address)": {
        "details": "Transfers ownership of the contract to a new account (`newOwner`). Can only be called by the current owner."
      }
    },
    "title": "ERC1155Tradable ERC1155Tradable - ERC1155 contract that whitelists an operator address, has create and mint functionality, and supports useful standards from OpenZeppelin, like _exists(), name(), symbol(), and totalSupply()"
  },
  "userdoc": {
    "methods": {
      "balanceOf(address,uint256)": {
        "notice": "Get the balance of an account's Tokens"
      },
      "balanceOfBatch(address[],uint256[])": {
        "notice": "Get the balance of multiple account/token pairs"
      },
      "isApprovedForAll(address,address)": {
        "notice": "Override isApprovedForAll to whitelist user's OpenSea proxy accounts to enable gas-free listings."
      },
      "safeBatchTransferFrom(address,address,uint256[],uint256[],bytes)": {
        "notice": "Send multiple types of Tokens from the _from address to the _to address (with safety call)"
      },
      "safeTransferFrom(address,address,uint256,uint256,bytes)": {
        "notice": "Transfers amount amount of an _id from the _from address to the _to address specified"
      },
      "setApprovalForAll(address,bool)": {
        "notice": "Enable or disable approval for a third party (\"operator\") to manage all of caller's tokens"
      },
      "supportsInterface(bytes4)": {
        "notice": "Query if a contract implements an interface"
      }
    }
  }
}