{
  "contractName": "Items",
  "abi": [
    {
      "inputs": [],
      "payable": false,
      "stateMutability": "nonpayable",
      "type": "constructor"
    },
    {
      "anonymous": false,
      "inputs": [
        {
          "indexed": false,
          "internalType": "uint256",
          "name": "id",
          "type": "uint256"
        },
        {
          "indexed": false,
          "internalType": "string",
          "name": "name",
          "type": "string"
        },
        {
          "indexed": false,
          "internalType": "address payable",
          "name": "owner",
          "type": "address"
        }
      ],
      "name": "ProductCreated",
      "type": "event"
    },
    {
      "constant": true,
      "inputs": [],
      "name": "productCount",
      "outputs": [
        {
          "internalType": "uint256",
          "name": "",
          "type": "uint256"
        }
      ],
      "payable": false,
      "stateMutability": "view",
      "type": "function"
    },
    {
      "constant": true,
      "inputs": [
        {
          "internalType": "uint256",
          "name": "",
          "type": "uint256"
        }
      ],
      "name": "products",
      "outputs": [
        {
          "internalType": "uint256",
          "name": "id",
          "type": "uint256"
        },
        {
          "internalType": "string",
          "name": "name",
          "type": "string"
        },
        {
          "internalType": "address payable",
          "name": "owner",
          "type": "address"
        }
      ],
      "payable": false,
      "stateMutability": "view",
      "type": "function"
    },
    {
      "constant": false,
      "inputs": [
        {
          "internalType": "address",
          "name": "owner",
          "type": "address"
        },
        {
          "internalType": "string",
          "name": "_name",
          "type": "string"
        }
      ],
      "name": "createProduct",
      "outputs": [],
      "payable": false,
      "stateMutability": "nonpayable",
      "type": "function"
    }
  ],
  "bytecode": "0x60806040526000805534801561001457600080fd5b50610597806100246000396000f3fe608060405234801561001057600080fd5b50600436106100415760003560e01c80637acc0b2014610046578063e0f6ef8714610127578063f4f9f89f14610145575b600080fd5b6100726004803603602081101561005c57600080fd5b8101908080359060200190929190505050610220565b60405180848152602001806020018373ffffffffffffffffffffffffffffffffffffffff1673ffffffffffffffffffffffffffffffffffffffff168152602001828103825284818151815260200191508051906020019080838360005b838110156100ea5780820151818401526020810190506100cf565b50505050905090810190601f1680156101175780820380516001836020036101000a031916815260200191505b5094505050505060405180910390f35b61012f610302565b6040518082815260200191505060405180910390f35b61021e6004803603604081101561015b57600080fd5b81019080803573ffffffffffffffffffffffffffffffffffffffff1690602001909291908035906020019064010000000081111561019857600080fd5b8201836020820111156101aa57600080fd5b803590602001918460018302840111640100000000831117156101cc57600080fd5b91908080601f016020809104026020016040519081016040528093929190818152602001838380828437600081840152601f19601f820116905080830192505050505050509192919290505050610308565b005b6001602052806000526040600020600091509050806000015490806001018054600181600116156101000203166002900480601f0160208091040260200160405190810160405280929190818152602001828054600181600116156101000203166002900480156102d25780601f106102a7576101008083540402835291602001916102d2565b820191906000526020600020905b8154815290600101906020018083116102b557829003601f168201915b5050505050908060020160009054906101000a900473ffffffffffffffffffffffffffffffffffffffff16905083565b60005481565b600081511161031657600080fd5b6000808154809291906001019190505550604051806060016040528060005481526020018281526020013373ffffffffffffffffffffffffffffffffffffffff1681525060016000805481526020019081526020016000206000820151816000015560208201518160010190805190602001906103949291906104bd565b5060408201518160020160006101000a81548173ffffffffffffffffffffffffffffffffffffffff021916908373ffffffffffffffffffffffffffffffffffffffff1602179055509050507faf6ffb6277511513e7d579327cc1fc57f0266df2fb11a60b13487b8c9cd2c388600054823360405180848152602001806020018373ffffffffffffffffffffffffffffffffffffffff1673ffffffffffffffffffffffffffffffffffffffff168152602001828103825284818151815260200191508051906020019080838360005b8381101561047d578082015181840152602081019050610462565b50505050905090810190601f1680156104aa5780820380516001836020036101000a031916815260200191505b5094505050505060405180910390a15050565b828054600181600116156101000203166002900490600052602060002090601f016020900481019282601f106104fe57805160ff191683800117855561052c565b8280016001018555821561052c579182015b8281111561052b578251825591602001919060010190610510565b5b509050610539919061053d565b5090565b61055f91905b8082111561055b576000816000905550600101610543565b5090565b9056fea265627a7a72315820c9551c733bedf7d650863d27cede2c407c516e302215e1a425cfda804385030464736f6c63430005100032",
  "source": "pragma solidity ^0.5.0;\n\ncontract Items {\n  uint public productCount = 0;\n\n  struct Product {\n    uint id;\n    string name;\n    address payable owner;\n  }\n\n  mapping(uint => Product) public products;\n\n  event ProductCreated(\n    uint id,\n    string name,\n    address payable owner\n  );\n\n\n  constructor() public {\n  \n  }\n\n  function createProduct(address owner,\n        string memory _name)\n         public {\n    require(bytes(_name).length > 0);\n    productCount ++;\n    products[productCount] = Product(productCount, _name, msg.sender);\n    emit ProductCreated(productCount, _name, msg.sender);\n  }\n}\n",
  "sourcePath": "/Users/mac15/Desktop/shekhar/learnings-v2 (2)/src/contracts/Items.sol",
  "compiler": {
    "name": "solc",
    "version": "0.5.16+commit.9c3226ce.Emscripten.clang"
  },
  "schemaVersion": "3.4.1",
  "updatedAt": "2021-07-22T12:04:06.426Z",
  "networkType": "ethereum",
  "devdoc": {
    "methods": {}
  },
  "userdoc": {
    "methods": {}
  }
}