{
  "contractName": "Profile",
  "abi": [
    {
      "constant": false,
      "inputs": [
        {
          "internalType": "address",
          "name": "_owner",
          "type": "address"
        },
        {
          "internalType": "string",
          "name": "data",
          "type": "string"
        }
      ],
      "name": "store",
      "outputs": [],
      "payable": false,
      "stateMutability": "nonpayable",
      "type": "function"
    },
    {
      "constant": true,
      "inputs": [
        {
          "internalType": "address",
          "name": "_owner",
          "type": "address"
        }
      ],
      "name": "retrieve",
      "outputs": [
        {
          "internalType": "string",
          "name": "",
          "type": "string"
        }
      ],
      "payable": false,
      "stateMutability": "view",
      "type": "function"
    }
  ],
  "bytecode": "0x608060405234801561001057600080fd5b5061039a806100206000396000f3fe608060405234801561001057600080fd5b50600436106100365760003560e01c80630a79309b1461003b578063845c03c1146100f8575b600080fd5b61007d6004803603602081101561005157600080fd5b81019080803573ffffffffffffffffffffffffffffffffffffffff1690602001909291905050506101d3565b6040518080602001828103825283818151815260200191508051906020019080838360005b838110156100bd5780820151818401526020810190506100a2565b50505050905090810190601f1680156100ea5780820380516001836020036101000a031916815260200191505b509250505060405180910390f35b6101d16004803603604081101561010e57600080fd5b81019080803573ffffffffffffffffffffffffffffffffffffffff1690602001909291908035906020019064010000000081111561014b57600080fd5b82018360208201111561015d57600080fd5b8035906020019184600183028401116401000000008311171561017f57600080fd5b91908080601f016020809104026020016040519081016040528093929190818152602001838380828437600081840152601f19601f82011690508083019250505050505050919291929050505061028e565b005b60607340b14c9f91942032777754abdd29886143c42e95915060008054600181600116156101000203166002900480601f0160208091040260200160405190810160405280929190818152602001828054600181600116156101000203166002900480156102825780601f1061025757610100808354040283529160200191610282565b820191906000526020600020905b81548152906001019060200180831161026557829003601f168201915b50505050509050919050565b7340b14c9f91942032777754abdd29886143c42e95915080600090805190602001906102bb9291906102c0565b505050565b828054600181600116156101000203166002900490600052602060002090601f016020900481019282601f1061030157805160ff191683800117855561032f565b8280016001018555821561032f579182015b8281111561032e578251825591602001919060010190610313565b5b50905061033c9190610340565b5090565b61036291905b8082111561035e576000816000905550600101610346565b5090565b9056fea265627a7a72315820370200a3819b24217f3c5a7916dad7b1028529ebe794de6fd649cf045078e7cb64736f6c63430005100032",
  "source": "\npragma solidity ^0.5.0;\n\n/**\n * @title Storage\n * @dev Store & retrieve value in a variable\n */\ncontract Profile {\n    string metadata;\n\n    function store(address _owner, string memory data) public {\n        _owner =0x40B14c9f91942032777754Abdd29886143c42E95;\n        metadata = data;\n    }\n\n   \n    function retrieve(address _owner) public view returns (string memory){\n        _owner = 0x40B14c9f91942032777754Abdd29886143c42E95;\n        return metadata;\n    }\n}",
  "sourcePath": "/Users/mac15/Desktop/amandeep/learningv2/src/contracts/Profile.sol",
  "compiler": {
    "name": "solc",
    "version": "0.5.16+commit.9c3226ce.Emscripten.clang"
  },
  "schemaVersion": "3.4.1",
  "updatedAt": "2021-08-06T09:35:17.451Z",
  "networkType": "ethereum",
  "devdoc": {
    "details": "Store & retrieve value in a variable",
    "methods": {},
    "title": "Storage"
  },
  "userdoc": {
    "methods": {}
  }
}