{
  "contractName": "ProxyRegistry",
  "abi": [
    {
      "constant": true,
      "inputs": [
        {
          "internalType": "address",
          "name": "",
          "type": "address"
        }
      ],
      "name": "proxies",
      "outputs": [
        {
          "internalType": "contract OwnableDelegateProxy",
          "name": "",
          "type": "address"
        }
      ],
      "payable": false,
      "stateMutability": "view",
      "type": "function"
    }
  ],
  "bytecode": "0x608060405234801561001057600080fd5b50610116806100206000396000f3fe6080604052348015600f57600080fd5b506004361060285760003560e01c8063c455279114602d575b600080fd5b606c60048036036020811015604157600080fd5b81019080803573ffffffffffffffffffffffffffffffffffffffff16906020019092919050505060ae565b604051808273ffffffffffffffffffffffffffffffffffffffff1673ffffffffffffffffffffffffffffffffffffffff16815260200191505060405180910390f35b60006020528060005260406000206000915054906101000a900473ffffffffffffffffffffffffffffffffffffffff168156fea265627a7a72315820ef8eb7bd1e3387a1afe39ebbced2c93583573479e55ddbcf23cb39874ad0dbaa64736f6c63430005100032",
  "source": "pragma solidity ^0.5.0;\n\nimport \"@openzeppelin/contracts/ownership/Ownable.sol\";\nimport 'multi-token-standard/contracts/tokens/ERC1155/ERC1155.sol';\nimport 'multi-token-standard/contracts/tokens/ERC1155/ERC1155Metadata.sol';\nimport 'multi-token-standard/contracts/tokens/ERC1155/ERC1155MintBurn.sol';\nimport \"./Strings.sol\";\n\ncontract OwnableDelegateProxy { }\n\ncontract ProxyRegistry {\n  mapping(address => OwnableDelegateProxy) public proxies;\n}\n\n/**\n * @title ERC1155Tradable\n * ERC1155Tradable - ERC1155 contract that whitelists an operator address, has create and mint functionality, and supports useful standards from OpenZeppelin,\n  like _exists(), name(), symbol(), and totalSupply()\n */\ncontract ERC1155Tradable is ERC1155, ERC1155MintBurn, ERC1155Metadata, Ownable {\n  using Strings for string;\n\n  uint256 public _currentTokenID = 0;\n  mapping (uint256 => address) public creators;\n  mapping (uint256 => uint256) public tokenSupply;\n  mapping(uint256 => ercToken) public ercTokens;\n  mapping(address => uint256[]) public ercTokenOwner;\n\n    struct ercToken {\n        uint256 id;\n        address payable owner;\n        uint256 totalSupply;\n        string metaData;\n    }\n  // Contract name\n  string public name;\n  // Contract symbol\n  string public symbol;\n\n  /**\n   * @dev Require msg.sender to be the creator of the token id\n   */\n  modifier creatorOnly(uint256 _id) {\n    require(creators[_id] == msg.sender, \"ERC1155Tradable#creatorOnly: ONLY_CREATOR_ALLOWED\");\n    _;\n  }\n\n  /**\n   * @dev Require msg.sender to own more than 0 of the token id\n   */\n  modifier ownersOnly(uint256 _id) {\n    require(balances[msg.sender][_id] > 0, \"ERC1155Tradable#ownersOnly: ONLY_OWNERS_ALLOWED\");\n    _;\n  }\n\n  constructor(\n    string memory _name,\n    string memory _symbol\n  ) public {\n    name = _name;\n    symbol = _symbol;\n  }\n\n  function uri(\n    uint256 _id\n  ) public view returns (string memory) {\n    require(_exists(_id), \"ERC721Tradable#uri: NONEXISTENT_TOKEN\");\n    return Strings.strConcat(\n      baseMetadataURI,\n      Strings.uint2str(_id)\n    );\n  }\n\n  /**\n    * @dev Returns the total quantity for a token ID\n    * @param _id uint256 ID of the token to query\n    * @return amount of token in existence\n    */\n  function totalSupply(\n    uint256 _id\n  ) public view returns (uint256) {\n    return tokenSupply[_id];\n  }\n\n  /**\n     * @dev Gets an array of owned auctions\n     * @param _owner address of the auction owner\n     */\n    function getTokensOfERC1155(address _owner)\n        public\n        view\n        returns (uint256[] memory)\n    {\n        uint256[] memory ownedERCTokens = ercTokenOwner[_owner];\n        return ownedERCTokens;\n    }\n\n  /**\n   * @dev Will update the base URL of token's URI\n   * @param _newBaseMetadataURI New base URL of token's URI\n   */\n  function setBaseMetadataURI(\n    string memory _newBaseMetadataURI\n  ) public {\n    _setBaseMetadataURI(_newBaseMetadataURI);\n  }\n\n  /**\n    * @dev Creates a new token type and assigns _initialSupply to an address\n    * NOTE: remove onlyOwner if you want third parties to create new tokens on your contract (which may change your IDs)\n    * @param _initialOwner address of the first owner of the token\n    * @param _initialSupply amount to supply the first owner\n    * @param _uri Optional URI for this token type\n    * @param _data Data to pass if receiver is contract\n    * @return The newly created token ID\n    */\n  function create(\n    address payable _initialOwner,\n    uint256 _initialSupply,                                     \n    string memory _uri,\n    bytes memory _data\n  ) public returns (uint256) {\n\n    uint256 _id = _getNextTokenID();\n    _incrementTokenTypeId();\n    creators[_id] = msg.sender;\n\n    if (bytes(_uri).length > 0) {\n      emit URI(_uri, _id);\n    }\n    ercTokenOwner[msg.sender].push(_id);\n\n    ercTokens[_id] = ercToken(\n            _id,\n            _initialOwner,\n            _initialSupply,\n            _uri\n        );\n\n    _mint(_initialOwner, _id, _initialSupply, _data);\n    tokenSupply[_id] = _initialSupply;\n    return _id;\n  }\n\n  /**\n    * @dev Mints some amount of tokens to an address\n    * @param _to          Address of the future owner of the token\n    * @param _id          Token ID to mint\n    * @param _quantity    Amount of tokens to mint\n    * @param _data        Data to pass if receiver is contract\n    */\n  function mint(\n    address _to,\n    uint256 _id,\n    uint256 _quantity,\n    bytes memory _data\n  ) public creatorOnly(_id) {\n    _mint(_to, _id, _quantity, _data);\n    tokenSupply[_id] = tokenSupply[_id].add(_quantity);\n  }\n\n  /**\n    * @dev Mint tokens for each id in _ids\n    * @param _to          The address to mint tokens to\n    * @param _ids         Array of ids to mint\n    * @param _quantities  Array of amounts of tokens to mint per id\n    * @param _data        Data to pass if receiver is contract\n    */\n  function batchMint(\n    address _to,\n    uint256[] memory _ids,\n    uint256[] memory _quantities,\n    bytes memory _data\n  ) public {\n    for (uint256 i = 0; i < _ids.length; i++) {\n      uint256 _id = _ids[i];\n      require(creators[_id] == msg.sender, \"ERC1155Tradable#batchMint: ONLY_CREATOR_ALLOWED\");\n      uint256 quantity = _quantities[i];\n      tokenSupply[_id] = tokenSupply[_id].add(quantity);\n    }\n    _batchMint(_to, _ids, _quantities, _data);\n  }\n\n  /**\n    * @dev Change the creator address for given tokens\n    * @param _to   Address of the new creator\n    * @param _ids  Array of Token IDs to change creator\n    */\n  function setCreator(\n    address _to,\n    uint256[] memory _ids\n  ) public {\n    require(_to != address(0), \"ERC1155Tradable#setCreator: INVALID_ADDRESS.\");\n    for (uint256 i = 0; i < _ids.length; i++) {\n      uint256 id = _ids[i];\n      _setCreator(_to, id);\n    }\n  }\n\n  /**\n   * Override isApprovedForAll to whitelist user's OpenSea proxy accounts to enable gas-free listings.\n   */\n  function isApprovedForAll(\n    address _owner,\n    address _operator\n  ) public view returns (bool isOperator) {\n    // Whitelist OpenSea proxy contract for easy trading.\n    // ProxyRegistry proxyRegistry = ProxyRegistry(proxyRegistryAddress);\n    // if (address(proxyRegistry.proxies(_owner)) == _operator) {\n    //   return true;\n    // }\n\n    return ERC1155.isApprovedForAll(_owner, _operator);\n  }\n\n  /**\n    * @dev Change the creator address for given token\n    * @param _to   Address of the new creator\n    * @param _id  Token IDs to change creator of\n    */\n  function _setCreator(address _to, uint256 _id) internal creatorOnly(_id)\n  {\n      creators[_id] = _to;\n  }\n\n  /**\n    * @dev Returns whether the specified token exists by checking to see if it has a creator\n    * @param _id uint256 ID of the token to query the existence of\n    * @return bool whether the token exists\n    */\n  function _exists(\n    uint256 _id\n  ) internal view returns (bool) {\n    return creators[_id] != address(0);\n  }\n\n  /**\n    * @dev calculates the next token ID based on value of _currentTokenID\n    * @return uint256 for the next token ID\n    */\n  function _getNextTokenID() private view returns (uint256) {\n    return _currentTokenID.add(1);\n  }\n\n  /**\n    * @dev increments the value of _currentTokenID\n    */\n  function _incrementTokenTypeId() private  {\n    _currentTokenID++;\n  }\n}\n",
  "sourcePath": "/Users/mac15/Desktop/shekhar/learnings-v2 (2)/src/contracts/ERC1155Tradable.sol",
  "compiler": {
    "name": "solc",
    "version": "0.5.16+commit.9c3226ce.Emscripten.clang"
  },
  "schemaVersion": "3.4.1",
  "updatedAt": "2021-07-27T04:26:31.034Z",
  "devdoc": {
    "methods": {}
  },
  "userdoc": {
    "methods": {}
  }
}